:100000000C943E000C94D9010C949B010C945B0061
:100010000C945B000C945B000C945B000C945B00F4
:100020000C945B000C94A1040C945B000C945B009A
:100030000C945B000C945B000C945B000C945B00D4
:100040000C945B000C945B000C945B000C945B00C4
:100050000C945B000C945B000C945B000C945B00B4
:100060000C945B000C945B000C945B000C945B00A4
:100070000C945B000C945B000C945B0011241FBE7D
:10008000CFEFD0E1DEBFCDBF13E0A0E0B1E0E2E80A
:10009000F2E102C005900D92A83CB107D9F714E037
:1000A000A8ECB3E001C01D92AD31B107E1F70E94A9
:1000B0005D000C943F090C9400002F923F924F92E8
:1000C0005F926F927F928F929F92AF92BF92CF92E8
:1000D000DF92EF92FF920F931F93DF93CF93CDB7F1
:1000E000DEB7AA970FB6F894DEBF0FBECDBF0E9451
:1000F000A10380E091E00E94BC038E01055E1F4FCA
:10010000C80164E170E00E941F07A2E0B4E0F801BA
:100110008AE001900D928150E1F70E94CB071D8685
:100120001E8635E2A32EB12CAC0EBD1E2FE0222E72
:10013000312C2C0E3D1E99EC492E93E0592E89E06E
:10014000682E712C6C0E7D1E4E010894811C911C32
:1001500080910C04882309F449C083E191E00E9456
:10016000BC0300910C0410910D0420910E043091F9
:100170000F04409110045091110460911204709189
:10018000130480911404909115040E9467062DA316
:100190003EA34FA358A769A77AA7DE015596F5019C
:1001A00086E001900D928150E1F782E094E02D8984
:1001B0003E894F89588D698D7A8D0E94DE03109299
:1001C0000C0485E491E00E94BC03809106049091A8
:1001D0000704BE016C5F7F4F4AE050E00E940E09A9
:1001E0000E94BC0381E591E00E94BC0382E094E0A0
:1001F0000E94D503882359F50E94C607882339F544
:1002000085E591E00E94BC0382E094E00E942C040A
:100210002DA33EA34FA358A769A77AA7D101F50143
:1002200086E001900D928150E1F7CA88D988EF8469
:10023000F8880E94BA0788EC93E0B7014D2D2C2D69
:100240000E94480280E395E70197F1F713C080917F
:100250001604882379F087E691E00E94BC030E948F
:100260008A0488EC93E0B7014D2D2C2D0E944802A2
:10027000109216048D85882359F069857A8588EC5B
:1002800093E04B852C850E9448021D860E948004C5
:100290008091E5038823A9F081E891E00E94BC03E6
:1002A0001092E50382E08093EE0381E08093EF03F8
:1002B00088EC93E06CEE73E042E020E10E94C10222
:1002C0002DC08091E603882339F082E991E00E94F5
:1002D000BC031092E60322C08091E703882339F023
:1002E00085EA91E00E94BC031092E70317C0809159
:1002F000E803882399F086EB91E00E94BC035A82C0
:1003000049828091D8038B838091C803B401A301F3
:1003100023E134E00E94E3041092E8038E858823F1
:1003200009F416CF609113047091140480911504A0
:100330000E947B070DCF1F920F920FB60F921124D0
:10034000FF920F931F932F933F934F935F936F935E
:100350007F938F939F93AF93BF93EF93FF930DE0A2
:1003600014E0FF24F394F0920D0482E080930E04D5
:1003700080930F040D5F1F4F0E944F07609310047E
:10038000F80171838283F0920C04FF91EF91BF9189
:10039000AF919F918F917F916F915F914F913F911D
:1003A0002F911F910F91FF900F900FBE0F901F90F4
:1003B00018951F920F920FB60F9211240F931F934F
:1003C0002F933F934F935F936F937F938F939F935D
:1003D000AF93BF93EF93FF930DE014E010920D04E1
:1003E00082E080930E0410920F040D5F1F4F0E9455
:1003F0004F0760931004F8017183828381E080933A
:100400000C04FF91EF91BF91AF919F918F917F91DC
:100410006F915F914F913F912F911F910F910F908D
:100420000FBE0F901F901895CF93DF93DC014423EC
:10043000C1F420E090E0C62FD0E0269606C0EA0F77
:10044000FB1F84A180FD9F5F2F5FE22FF0E0CE179E
:10045000DF07ACF790FF19C0CA0FDB1F81E08CA348
:1004600014C0423091F4FC01E60FF11D97968C9177
:10047000979794969C919497892781A798968C91A9
:10048000989796969C91892782A7DF91CF9108959E
:100490001F93CF93DF93EC01122F1BA2493061F021
:1004A0004A3018F4483071F405C04A3039F04B3006
:1004B00049F406C08FE005C080E103C081E101C0BE
:1004C00082E18C8F8FEF8B8B1C8A21E02D8B8E8BA2
:1004D00092E09F8B188E198E1A8E1B8E8CA31DA2F4
:1004E0002EA31FA348A7DE01999620E030E007C0A5
:1004F000FB01E20FF31F80818D932F5F3F4F241785
:10050000B8F3FE01E40FF11D11A612A6CE01642F6F
:1005100040E00E941402188381E08D8F1E8E1F8E92
:1005200018A2DF91CF911F910895FB01442369F434
:1005300030E090E005C0808180FD9F5F3F5F319695
:100540003217C8F390FD1BC013C04230B9F442818A
:100550003481838190818927E20FF11D3297908148
:100560003296891761F4342731978081381739F42E
:1005700086E192E00E94BC0381E00895089580E046
:100580000895FF920F931F93CF93DF93EC018B019C
:10059000F22EFB0180818A3F18F48CE392E07EC04A
:1005A000FB0183818F3F09F06EC081818823D9F4DC
:1005B00081E081838283DE0120E030E0F801E20FF8
:1005C000F31F808153968C9353972F5F3F4F119663
:1005D0002930310599F78B8981508B8B1D8E81E0F5
:1005E0008E8F1F8EA7C0813009F0A5C0FB018281CC
:1005F0008230C1F48BA1882361F4423021F449A3F5
:1006000080E592E032C0433091F549A381E692E063
:1006100019C0813061F5423011F44AA324C043303F
:1006200031F519C0833031F58BA1882381F4433033
:1006300021F449A381E692E018C04230C1F449A3F5
:1006400080E592E00E94BC0382E792E00EC0813018
:1006500071F4433021F44AA380E992E006C04230AD
:1006600031F482E08AA38DE792E00E94BC038BA163
:100670008F5F8BA389A18A8BF8019281888198175B
:1006800009F059C053C08130F1F5CE01F801418124
:100690000E949502882329F483EA92E00E94BC0319
:1006A0004AC0F0E1FF1679F0FF1520F08FE0F81650
:1006B00081F407C0E1E1FE1641F0F2E1FF1649F4D2
:1006C00006C088E005C089E003C08AE001C08BE075
:1006D000888BD80140E050E007C0FE01E40FF51F11
:1006E00014968C91149780839A014F5F5F4F1196F7
:1006F000888990E02817390784F31D8E1E8E1F8E7F
:1007000081E088A318C0FB018281813019F48DEC4F
:1007100092E0C4CF823011F483E003C0833011F43F
:1007200082E08A8BF8018081815080831D8E1E8E2D
:1007300081E08F8F18A2DF91CF911F910F91FF90D1
:1007400008951092C5008DE48093C40088E18093E1
:10075000C10086E08093C20008958091C00087FFA9
:10076000FCCF8091C6000895982F8091C00085FF2E
:10077000FCCF9093C6000895FC0107C08091C00093
:1007800085FFFCCF9093C600319690819923B1F7F5
:100790000895FC0140E024813581868197812817E6
:1007A000390709F441E0842F089520E0FC01848199
:1007B0009581892B09F421E0822F08950F931F93CF
:1007C000DF93CF9300D000D000D0CDB7DEB78C013F
:1007D00029833A834B835C836D837E83DC01169689
:1007E0006D917C91179714968D919C911597861712
:1007F000970739F112968D919C91139701960E945B
:10080000F5079C01F80193838283880F991F820F5B
:10081000931F880F991F0084F185E02DE80FF91FC1
:10082000DE01119686E00D9001928150E1F7D8012A
:1008300014968D919C911597019615969C938E9385
:10084000149726960FB6F894DEBF0FBECDBFCF919A
:10085000DF911F910F910895DF93CF93CDB7DEB74E
:100860002C970FB6F894DEBF0FBECDBF9C01DC0104
:100870004D915C911197CA01880F991F840F951FA4
:10088000880F991F1896ED91FC911997DE0111962A
:10089000E80FF91F86E001900D928150E1F7F90110
:1008A00066817781CA0101960E94F5079183808352
:1008B00084819581019795838483DE011796FE01DB
:1008C000319686E001900D928150E1F72F813885B5
:1008D00049855A856B857C8590E02C960FB6F894F7
:1008E000DEBF0FBECDBFCF91DF9108958091BF03D2
:1008F000882311F481E001C08F5F8093BF030895C6
:100900008091C003882311F481E001C08F5F809340
:10091000C0030895809117048F5F80931704089592
:100920001092170408950F931F938C01FC0180818E
:1009300091810E94B608C8010E94B6081F910F91CC
:1009400008951F920F920FB60F9211242F933F9389
:100950004F935F936F937F938F939F93AF93BF93C7
:10096000EF93FF93809118048F5F809318048E3269
:1009700049F480911704823028F481E080931604B2
:100980001092180480911704823060F083EE92E098
:100990000E94BC030E94C007109217041092180412
:1009A00010921604FF91EF91BF91AF919F918F919B
:1009B0007F916F915F914F913F912F910F900FBE5B
:1009C0000F901F9018956F927F928F929F92AF9287
:1009D000BF92CF92DF92EF92FF920F931F93DF931C
:1009E000CF9300D000D00F92CDB7DEB7682E7B0139
:1009F0008A016901DB011296BC901297ED91FC917E
:100A00008481F9018283DA0115961C92DB01ED9154
:100A1000FC918181882309F465C08FE093E00E94F6
:100A2000BC0387E393E00E94BC038091BF0390E086
:100A30008E010F5F1F4FB8014AE050E00E940E097F
:100A40000E94BC038AE493E00E94BC03D701ED91AD
:100A5000FC91818190E0B8014AE050E00E940E09CB
:100A60000E94BC0389E693E00E94BC03D701ED918C
:100A7000FC912181332727FD30958091BF0390E0C1
:100A80002817390709F00FC12B2D2250DF0190E004
:100A900040E050E004C08D91480F511D9F5F9217B8
:100AA000D0F3EB0DF11D3297CA0154E0969587956E
:100AB0005A95E1F720813296281709F0F4C0319752
:100AC0008081841709F0EFC00E94C00710921604BD
:100AD0008091BF03882311F481E001C08F5F809370
:100AE000BF03E1C08CE693E00E94BC034EEF742E7E
:100AF0007B0CF701A081B181FD0190E060E070E026
:100B000004C08191680F711D9F5F9715D0F34B2D25
:100B100050E03EEF832E3FEF932E840E951EFD0195
:100B2000E80DF91DCB0124E0969587952A95E1F70C
:100B30002081281709F0B7C05A010894A108B1080C
:100B4000AA0DBB1D8C91861709F0ADC0CA010E9489
:100B50000908FC01D80111969C938E938091C003E3
:100B600080830D90BC91A02DF70180819181FC01C3
:100B7000808111968C93F801A081B181F701808169
:100B80009181FC01838112968C93F801A081B1813F
:100B9000F70180819181FC01828113968C93F80189
:100BA000A081B181F70180819181FC01848114963B
:100BB0008C93D70112968C91F801828390E016C035
:100BC000A92FB0E09D012B5F3F4FAC0DBD1DF7017C
:100BD00040815181420F531FFA0180818C93D801CB
:100BE000ED91FC91E20FF31F10829F5FF60182816D
:100BF000981730F3D801ED91FC91DF0190E020E0EF
:100C000030E004C08D91280F311D9F5F9715D0F300
:100C1000E80DF91DC901A4E096958795AA95E1F71D
:100C20008083D801ED91FC911197EA0DFB1D208383
:100C300013966C92139781E014968C9314971596E3
:100C40008C93FF246E010894C11CD11C24C085E93B
:100C500093E00E94BC038F2D90E0B6014AE050E083
:100C60000E940E090E94BC0389EA93E00E94BC0323
:100C7000D801ED91FC91EF0DF11D808190E0B6015E
:100C80004AE050E00E940E090E94BC0389E693E00E
:100C90000E94BC03F394F8018281F816C0F289E641
:100CA00093E00E94BC030F900F900F900F900F9055
:100CB000CF91DF911F910F91FF90EF90DF90CF9038
:100CC000BF90AF909F908F907F906F9008959F926C
:100CD000AF92BF92CF92DF92EF92FF920F931F934A
:100CE000DF93CF93CDB7DEB76B970FB6F894DEBF27
:100CF0000FBECDBF0A8BE12E1B8BF22E2C8B3D8BB2
:100D00004E8B5F8B688F798F8A8F9B8FB62E932E39
:100D1000062F10E0C80107960E940908582F692F76
:100D2000C82ED92E8091BF03F60180831182E28202
:100D3000F382B48295E00C5F1F4F9E012F5E3F4F00
:100D400008C0F601EA0FFB1FA20FB31F8C9180832E
:100D50009F5FA92FB0E00A171B079CF74B2D4B5F35
:100D6000852F962F9C017901F90190E020E030E079
:100D700004C08191280F311D9F5F9417D0F3F601B5
:100D8000EB0DF11DC90164E0969587956A95E1F731
:100D9000858326830B2D095F10E05E010894A11C5A
:100DA000B11C21C08EEA93E00E94BC03812F90E029
:100DB000B5014AE050E00E940E090E94BC0389EA96
:100DC00093E00E94BC03F70181917F0190E0B5019F
:100DD0004AE050E00E940E090E94BC0389E693E0BD
:100DE0000E94BC031F5F1017E8F289E693E00E949F
:100DF000BC03DF82CE8208879986DE011C96FE0145
:100E0000369686E001900D928150E1F72C853D8564
:100E10004E855F856889798990E06B960FB6F89466
:100E2000DEBF0FBECDBFCF91DF911F910F91FF901D
:100E3000EF90DF90CF90BF90AF909F900895EF928A
:100E4000FF920F931F937C018B01CB01880F991F99
:100E5000860F971F880F991F0E940908F701808746
:100E6000918701501040138302830F5F1F4F178338
:100E700006831182108215821482C7011F910F917F
:100E8000FF90EF90089580E480937C00EAE7F0E023
:100E90008081866080838081806880830895DF936D
:100EA000CF9300D00F92CDB7DEB780917A008064E7
:100EB00080937A0080917A0086FDFCCF8091780043
:100EC00090917900692F782F82E090E00F900F9039
:100ED0000F90CF91DF910895559AE0E8F0E080817E
:100EE0008068808380818B608083E1E8F0E080818E
:100EF000826080830895DF93CF9300D00F92CDB7A7
:100F0000DEB7962F80E0272F30E0822B932B909333
:100F10008900809388000F900F900F90CF91DF9100
:100F200008958130910551F08230910571F0892B3F
:100F300091F4E89A80916900836004C0E99A8091F5
:100F400069008C60809369000895EA9A8091690035
:100F50008063809369000895E0EBF0E08081806C0D
:100F60008083E1EBF0E08081876880838FEF80935E
:100F7000B3000895E0E7F0E0808182608083089507
:100F8000E0E7F0E080818D7F80830895809170009C
:100F9000811181E008950E94A10378941AB88BB161
:100FA0008C608BB980E090E00E94910781E090E036
:100FB0000E94910780E480937C00EAE7F0E0808162
:100FC000866080838081806880830E946C07E0EB6C
:100FD000F0E08081806C8083E1EBF0E080818768C5
:100FE00080838FEF8093B3000895AA1BBB1B51E150
:100FF00007C0AA1FBB1FA617B70710F0A61BB70B89
:10100000881F991F5A95A9F780959095BC01CD012D
:101010000895CF93DF93BC018230910510F462E014
:1010200070E0A0911B04B0911C04ED01E0E0F0E041
:1010300040E050E021C0888199818617970769F4C4
:101040008A819B81309719F09383828304C09093A7
:101050001C0480931B04FE0134C06817790738F420
:101060004115510519F08417950708F4AC01FE01EC
:101070008A819B819C01E9012097E9F64115510580
:10108000A9F1CA01861B970B049708F4BA01E0E0A6
:10109000F0E02AC08D919C91119784179507F9F47F
:1010A0006417750781F412968D919C911397309770
:1010B00019F09383828304C090931C0480931B04D3
:1010C000FD0132964FC0CA01861B970BFD01E80F48
:1010D000F91F6193719302978D939C9343C0FD0117
:1010E000828193819C01D9011097A1F68091190406
:1010F00090911A04892B41F48091C3039091C40309
:1011000090931A04809319044091C5035091C6032B
:101110004115510541F44DB75EB78091C1039091DF
:10112000C203481B590B2091190430911A0424174B
:101130003507B0F4CA01821B930B8617970780F01E
:10114000AB014E5F5F4F8417950750F0420F531F5E
:1011500050931A0440931904F9016193719302C0EA
:10116000E0E0F0E0CF01DF91CF910895CF93DF93DE
:10117000009709F450C0EC0122971B821A82A091BB
:101180001B04B0911C04109709F140E050E0AC172B
:10119000BD0708F1BB83AA83FE0121913191E20FC3
:1011A000F31FAE17BF0779F48D919C911197280F0B
:1011B000391F2E5F3F4F3983288312968D919C9162
:1011C00013979B838A834115510571F4D0931C04B6
:1011D000C0931B0420C012968D919C911397AD0172
:1011E000009711F0DC01D3CFFA01D383C2832191A0
:1011F0003191E20FF31FCE17DF0769F488819981DF
:10120000280F391F2E5F3F4FFA01318320838A81D7
:101210009B8193838283DF91CF910895FB019F018E
:10122000E8944230C4F04532B4F44A3029F497FBD4
:101230001EF4909581959F4F642F77270E94F507A4
:10124000805D8A330CF0895D8193CB010097A1F713
:1012500016F45DE251931082C9010C942F09DC0150
:10126000FC01672F71917723E1F7329704C07C91DD
:101270006D9370836291AE17BF07C8F30895F89419
:02128000FFCF9E
:101282000A0D496E6974696174696E670D0A0D0A07
:101292000D0A004170702069732074726967676576
:1012A2007265642E2053656E6420617070206461E3
:1012B200746120746F207472616E73706F72742126
:1012C20021210D0A0051756575652073697A6520C3
:1012D200000D0A20005472616E736D697474696E38
:1012E200672121210D0A000D0A496E205265747290
:1012F200616E736D6974204D6F64652121210D0A41
:10130200000A0D42524F414443415354494E470A49
:101312000D000A0D524542524F4144434153544934
:101322004E470D0A000A0D53454E44494E4720448C
:101332004154410D0A000A0D524543454956494E52
:101342004700FF0001020201010000FF0001020943
:10135200FF00010202010100000000FF0002FF0283
:1013620000000000FE0103FF0200000000FE010376
:10137200FF0200000000FF00020309FF0001020259
:10138200010100000000FE00020109FF000102024B
:101392000101000000000A0A0D2020202020202048
:1013A20020202020204E455420434845434B53558E
:1013B2004D205041535345440A0A0D000A0D484F2F
:1013C20050204C494D495420524541434845440020
:1013D2000A0D666972737420706C6163653A20321B
:1013E200000A0D666972737420706C6163653A203D
:1013F20033000A0D77696C6C20686F70000A0D73F8
:1014020065636F6E6420706C6163653A20320A0016
:101412000A0D7365636F6E6420706C6163653A20B8
:10142200330A000A0A0D202020202020202020201C
:101432004441544120434F52525550544544202D6B
:101442002D20444953434152440A0A0D000A0A0D11
:1014520053484F554C44204E4F5420424520484556
:101462005245000D0A476976696E672075702072D1
:101472006573656E64696E672074686509206D65C1
:101482007373616765206E6F772E2E2E0D0A0049E9
:101492006E205452414E53504F52542C20696E6369
:1014A2006F6D696E67207061636B61676520697338
:1014B2002041434B0D0A000D0A53657175656E6339
:1014C20065206E756D62657220000D0A5365676D49
:1014D200656E742061636B2073657175656E6365FB
:1014E200206E756D62657220000D0A00496E2054EF
:1014F20052414E53504F52542C20696E636F6D69A6
:101502006E67207061636B616765206E6F74204146
:10151200434B0D0A00544C20726563656976652061
:101522007365676D656E742000203A202000544C6C
:101532002073656E64207365676D656E74200001AB
:081542000120001D040000005F
:00000001FF
