:100000000C947F000C944E020C9410020C949C00F3
:100010000C949C000C949C000C949C000C949C00F0
:100020000C949C000C9412050C949C000C949C0065
:100030000C949C000C949C000C949C000C949C00D0
:100040000C949C000C949C000C949C000C949C00C0
:100050000C949C000C949C000C949C000C949C00B0
:100060000C949C000C949C000C949C000C949C00A0
:100070000C949C000C949C000C949C0007634236EA
:10008000B79BD8A71A39685618AEBAAB558C1D3C29
:10009000B7CC5763BD6DEDFD753EF6177231BF00ED
:1000A0000000803F08000000BE922449123EABAA27
:1000B000AA2ABECDCCCC4C3E00000080BEABAAAA82
:1000C000AA3E00000000BF000000803F00000000CA
:1000D00000084178D3BB4387D1133D190E3CC3BD03
:1000E0004282AD2B3E68EC8276BED98FE1A93E4CB0
:1000F00080EFFFBE01C4FF7F3F000000000011241D
:100100001FBECFEFD0E1DEBFCDBF15E0A0E0B1E074
:10011000EEE4FEE202C005900D92A033B107D9F7DC
:1001200015E0A0E3B5E001C01D92A438B107E1F7E6
:100130000E949E000C9425170C9400002F923F9271
:100140004F925F926F927F928F929F92AF92BF92E7
:10015000CF92DF92EF92FF920F931F93DF93CF9393
:10016000CDB7DEB7A8970FB6F894DEBF0FBECDBFF0
:1001700019828EE190E061E070E00E94EB12382E6F
:10018000292E0E94120480E091E00E942D048E012D
:10019000075E1F4FC80164E170E00E945405A9E6A4
:1001A000B5E0F8018AE001900D928150E1F70E94DC
:1001B00024081B861C8685E090E06FE170E00E94B9
:1001C000EB12D92EE82EF92EC82E93E2492E512C8F
:1001D0004C0E5D1E8BE9882E912C8E0C9F1C8091FD
:1001E00073058823A1F183E191E00E942D04009121
:1001F0007305109174052091750530917605409135
:100200007705509178056091790570917A05809114
:100210007B0590917C050E94D7062BA33CA34DA3A0
:100220005EA36FA378A7DE015396F20186E00190EA
:100230000D928150E1F789E695E02B893C894D8943
:100240005E896F89788D0E944F04109273058C85AA
:10025000882361F08FE291E00E942D0460917A057D
:1002600070917B0580917C050E94D40789E695E01A
:100270000E944604882361F50E941F08882341F5E7
:1002800087E491E00E942D0489E695E00E949D0498
:100290002BA33CA34DA35EA36FA378A7DE011D96FD
:1002A000F20186E001900D928150E1F768887F8429
:1002B000AD84BE840E94130880E395E0B501472D0C
:1002C000262D0E94BD0280E395E70197F1F713C048
:1002D00080917D05882379F08DE591E00E942D04C1
:1002E0000E94FB0480E395E0B501472D262D0E9476
:1002F000BD0210927D058B85882379F086E791E019
:100300000E942D046F81788580E395E049852A85D8
:100310000E94BD021B860E94F104CE010296632D4D
:10032000722DAE014D5F5F4F9E012F5F3F4F8601E3
:100330000E94710D80914C05882371F08CE891E04A
:100340000E942D048FEF63E475E048E096010E945F
:100350009E0A10924C0543CF80914D05882371F081
:1003600086EA91E00E942D048FEF63E475E048E097
:1003700096010E949E0A10924D0531CF80914E0544
:10038000882381F082EC91E00E942D048091420547
:1003900063E575E040914B0596010E949E0A10921C
:1003A0004E051DCF89818823E1F0198280E395E015
:1003B000632D722D4A812B810E94350397010EC057
:1003C000F901E80FF91F108201968E319105C1F7EE
:1003D000215E3F4F2815390509F401CF80E090E0F8
:1003E000EFCF80914F05882309F4F9CE8CED91E091
:1003F0000E942D0481E395E09D838C8380914005CC
:100400008E8380913005BE016C5F7F4FAE01495FE6
:100410005F4F2AE735E00E94780510924F05DFCE46
:100420001F920F920FB60F921124FF920F931F93FA
:100430002F933F934F935F936F937F938F939F93EC
:10044000AF93BF93EF93FF9304E715E0FF24F3947A
:10045000F092740582E080937505809376050D5FB8
:100460001F4F0E94A80760937705F801718382836C
:10047000F0927305FF91EF91BF91AF919F918F9192
:100480007F916F915F914F913F912F911F910F91AC
:10049000FF900F900FBE0F901F9018951F920F9214
:1004A0000FB60F9211240F931F932F933F934F93E7
:1004B0005F936F937F938F939F93AF93BF93EF93CC
:1004C000FF9304E715E01092740582E080937505B0
:1004D000109276050D5F1F4F0E94A8076093770565
:1004E000F8017183828381E080937305FF91EF911E
:1004F000BF91AF919F918F917F916F915F914F913C
:100500003F912F911F910F910F900FBE0F901F9051
:100510001895CF93DF93DC014423C1F420E090E0F1
:10052000C62FD0E0269606C0EA0FFB1F83A180FDF0
:100530009F5F2F5FE22FF0E0CE17DF07ACF790FF51
:1005400019C0CA0FDB1F81E08BA314C0423091F4A5
:10055000FC01E60FF11D96968C91969793969C91CF
:100560009397892780A797968C91979795969C91BA
:10057000892781A7DF91CF9108951F93CF93DF93B0
:10058000EC01122F1AA2493061F04A3018F44830B9
:1005900071F405C04A3039F04B3049F406C08FE0A1
:1005A00005C080E103C081E101C082E18B8F8FEF44
:1005B0008B8B1C8A21E02D8B8E8B92E09F8B188E6B
:1005C000198E1A8E8BA31CA22DA31EA34FA3DE018E
:1005D000989620E030E007C0FB01E20FF31F808116
:1005E0008D932F5F3F4F2417B8F3FE01E40FF11DE9
:1005F00010A611A6CE01642F40E00E948902188344
:1006000081E08C8F1D8E1E8E1F8EDF91CF911F91EA
:100610000895FB01442369F430E090E005C0808137
:1006200080FD9F5F3F5F31963217C8F390FD1BC07E
:1006300013C04230B9F4428134818381908189278B
:10064000E20FF11D329790813296891761F43427B9
:1006500031978081381739F485E492E00E942D04A7
:1006600081E00895089580E00895FF920F931F930D
:10067000CF93DF93EC018B01F22EFB0180818A3F47
:1006800018F48BE692E07BC0FB0183818F3F09F079
:100690006BC081818823D9F481E081838283DE016C
:1006A00020E030E0F801E20FF31F808153968C9335
:1006B00053972F5F3F4F11962930310599F78B895A
:1006C00081508B8B1C8E81E08D8F1E8EA4C081305B
:1006D00009F0A2C0FB0182818823B1F48AA188239A
:1006E00061F4442321F418A28FE792E02FC0423036
:1006F00079F548A380E992E017C0813049F5442399
:1007000011F1423029F519C0823029F58AA18823D8
:1007100081F4423021F448A380E992E017C04423D9
:10072000B9F418A28FE792E00E942D0481EA92E0CA
:100730000DC0813069F4423021F449A38FEB92E07F
:1007400005C0442329F419A28CEA92E00E942D04EA
:100750008AA18F5F8AA388A18A8BF8019281888100
:10076000981709F059C053C08130F1F5CE01F80156
:1007700041810E940903882329F482ED92E00E94BE
:100780002D044AC0F0E1FF1679F0FF1520F08FE04C
:10079000F81681F407C0E1E1FE1641F0F2E1FF1620
:1007A00049F406C088E005C089E003C08AE001C0C2
:1007B0008BE0888BD80140E050E007C0FE01E40FD9
:1007C000F51F14968C91149780839A014F5F5F4FA9
:1007D0001196888990E02817390784F31C8E1D8EA6
:1007E0001E8E81E08F8F18C0FB018281813019F449
:1007F0008CEF92E0C4CF882319F482E08A8B03C087
:10080000823009F41A8AF8018081815080831C8E1D
:100810001D8E81E08E8F1F8EDF91CF911F910F91E2
:10082000FF9008951092C5008DE48093C40088E184
:100830008093C10086E08093C20008958091C0003B
:1008400087FFFCCF8091C6000895982F8091C0004B
:1008500085FFFCCF9093C6000895FC0107C08091EE
:10086000C00085FFFCCF9093C600319690819923FC
:10087000B1F70895FC0140E024813581868197819C
:100880002817390709F441E0842F089520E0FC017E
:1008900084819581892B09F421E0822F08950F939B
:1008A0001F93DF93CF9300D000D000D0CDB7DEB739
:1008B0008C0129833A834B835C836D837E83DC01C7
:1008C00016966D917C91179714968D919C91159722
:1008D0008617970739F112968D919C91139701967F
:1008E0000E94A0129C01F80193838283880F991FB4
:1008F000820F931F880F991F0084F185E02DE80F68
:10090000F91FDE01119686E00D9001928150E1F70A
:10091000D80114968D919C911597019615969C93EC
:100920008E93149726960FB6F894DEBF0FBECDBFF8
:10093000CF91DF911F910F910895DF93CF93CDB7A2
:10094000DEB72C970FB6F894DEBF0FBECDBF9C016B
:10095000DC014D915C911197CA01880F991F840F9A
:10096000951F880F991F1896ED91FC911997DE013C
:100970001196E80FF91F86E001900D928150E1F782
:10098000F90166817781CA0101960E94A0129183C4
:10099000808384819581019795838483DE011796F6
:1009A000FE01319686E001900D928150E1F72F8192
:1009B000388549855A856B857C8590E02C960FB6E5
:1009C000F894DEBF0FBECDBFCF91DF910895809127
:1009D000B503882311F481E001C08F5F8093B503D4
:1009E00008958091B603882311F481E001C08F5FE0
:1009F0008093B603089580917E058F5F80937E0576
:100A0000089510927E0508950F931F938C01FC01A9
:100A1000808191810E94B413C8010E94B4131F9178
:100A20000F9108951F920F920FB60F9211242F93DA
:100A30003F934F935F936F937F938F939F93AF9366
:100A4000BF93EF93FF9380917F058F5F80937F0526
:100A50008E3249F480917E05853028F481E08093C0
:100A60007D0510927F0580917E05853060F082E1E2
:100A700093E00E942D040E94190810927E051092A6
:100A80007F0510927D05FF91EF91BF91AF919F91EE
:100A90008F917F916F915F914F913F912F910F9027
:100AA0000FBE0F901F901895EF92FF920F931F9318
:100AB0007C018B01CB01880F991F860F971F880F30
:100AC000991F0E940713F7018087918701501040FA
:100AD000138302830F5F1F4F1783068311821082D7
:100AE00015821482C7011F910F91FF90EF90089516
:100AF0006F927F928F929F92AF92BF92CF92DF922E
:100B0000EF92FF920F931F93DF93CF9300D000D00B
:100B10000F92CDB7DEB7682E7B018A015901DB0148
:100B20001296DC901297ED91FC918481F9018283F9
:100B3000DA0115961C92DB01ED91FC9181818823ED
:100B400009F440C08DE393E00E942D04D701ED919C
:100B5000FC912181332727FD30958091B50390E0EA
:100B60002817390709F00FC12D2D2250DF0190E021
:100B700040E050E004C08D91480F511D9F5F9217D7
:100B8000D0F3ED0DF11D3297CA0154E0969587958B
:100B90005A95E1F720813296281709F0F4C0319771
:100BA0008081841709F0EFC00E94190810927D051A
:100BB0008091B503882311F481E001C08F5F809399
:100BC000B503E1C087E593E00E942D044EEF742E3B
:100BD0007D0CF701A081B181FD0190E060E070E043
:100BE00004C08191680F711D9F5F9715D0F34D2D43
:100BF00050E03EEF832E3FEF932E840E951EFD01B5
:100C0000E80DF91DCB0124E0969587952A95E1F72B
:100C10002081281709F0B7C06A010894C108D108DB
:100C2000AC0DBD1D8C91861709F0ADC0CA010E94A4
:100C30000713FC01D80111969C938E938091B60303
:100C400080830D90BC91A02DF70180819181FC01E2
:100C5000808111968C93F801A081B181F701808188
:100C60009181FC01838112968C93F801A081B1815E
:100C7000F70180819181FC01828113968C93F801A8
:100C8000A081B181F70180819181FC01848114965A
:100C90008C93D70112968C91F801828390E016C054
:100CA000A92FB0E09D012B5F3F4FAA0DBB1DF7019F
:100CB00040815181420F531FFA0180818C93D801EA
:100CC000ED91FC91E20FF31F10829F5FF50182818D
:100CD000981730F3D801ED91FC91DF0190E020E00E
:100CE00030E004C08D91280F311D9F5F9715D0F320
:100CF000E80DF91DC901A4E096958795AA95E1F73D
:100D00008083D801ED91FC911197EC0DFD1D20839E
:100D100013966C92139781E014968C931497159602
:100D20008C93FF245E010894A11CB11C24C082E7AF
:100D300093E00E942D048F2D90E0B5014AE050E031
:100D40000E9413140E942D0486E893E00E942D0453
:100D5000D801ED91FC91EF0DF11D808190E0B5017E
:100D60004AE050E00E9413140E942D048BE893E0A7
:100D70000E942D04F394F8018281F816C0F28BE8EA
:100D800093E00E942D040F900F900F900F900F9002
:100D9000CF91DF911F910F91FF90EF90DF90CF9057
:100DA000BF90AF909F908F907F906F9008959F928B
:100DB000AF92BF92CF92DF92EF92FF920F931F9369
:100DC000DF93CF93CDB7DEB76B970FB6F894DEBF46
:100DD0000FBECDBF0A8BE12E1B8BF22E2C8B3D8BD1
:100DE0004E8B5F8B688F798F8A8F9B8FB62E932E59
:100DF000062F10E0C80107960E940713582F692F8D
:100E0000C82ED92E8091B503F60180831182E2822B
:100E1000F382B48295E00C5F1F4F9E012F5E3F4F1F
:100E200008C0F601EA0FFB1FA20FB31F8C9180834D
:100E30009F5FA92FB0E00A171B079CF74B2D4B5F54
:100E4000852F962F9C017901F90190E020E030E098
:100E500004C08191280F311D9F5F9417D0F3F601D4
:100E6000EB0DF11DC90164E0969587956A95E1F750
:100E7000858326830B2D095F10E05E010894A11C79
:100E8000B11C21C08EE893E00E942D04812F90E0D8
:100E9000B5014AE050E00E9413140E942D0486E838
:100EA00093E00E942D04F70181917F0190E0B5014C
:100EB0004AE050E00E9413140E942D048BE893E056
:100EC0000E942D041F5F1017E8F28FE993E00E9443
:100ED0002D04892D90E0B5014AE050E00E941314E2
:100EE0000E942D048BE893E00E942D04DF82CE82C5
:100EF00008879986DE011C96FE01369686E00190F1
:100F00000D928150E1F72C853D854E855F8568897E
:100F1000798990E06B960FB6F894DEBF0FBECDBF17
:100F2000CF91DF911F910F91FF90EF90DF90CF90C5
:100F3000BF90AF909F90089580E480937C00EAE793
:100F4000F0E080818660808380818068808308955E
:100F5000DF93CF9300D00F92CDB7DEB780917A00A8
:100F6000806480937A0080917A0086FDFCCF809126
:100F7000780090917900692F782F82E090E00F90AF
:100F80000F900F90CF91DF910895559AE0E8F0E02F
:100F900080818068808380818B608083E1E8F0E0DD
:100FA0008081826080830895DF93CF9300D00F9279
:100FB000CDB7DEB7962F80E0272F30E0822B932B22
:100FC00090938900809388000F900F900F90CF919D
:100FD000DF9108958130910551F08230910571F0D3
:100FE000892B91F4E89A80916900836004C0E99AA2
:100FF000809169008C60809369000895EA9A8091DD
:1010000069008063809369000895E0EBF0E08081DF
:10101000806C8083E1EBF0E08081876880838FEFD4
:101020008093B3000895E0E7F0E0808182608083E0
:101030000895E0E7F0E080818D7F808308958091BE
:101040007000811181E008950E94120478941AB80A
:101050008BB18C608BB980E090E00E94EA0781E060
:1010600090E00E94EA0780E480937C00EAE7F0E0E9
:101070008081866080838081806880830E94C5072C
:10108000E0EBF0E08081806C8083E1EBF0E0808138
:10109000876880838FEF8093B30008954F925F92AB
:1010A0006F927F928F929F92AF92BF92CF92DF9278
:1010B000FF920F931F93DF93CF93CDB7DEB7619766
:1010C0000FB6F894DEBF0FBECDBF5C018B01742F4D
:1010D000DE011196E0E1F4E081E101900D92815092
:1010E000E1F7FF2401C0F394F501EF0DF11D8081BC
:1010F0008823C9F3DF0120E030E06E010894C11CB1
:10110000D11CA801420F531F60E0F601E20FF31F4C
:101110009C918081981361E0FA0160832F5F3F4FBB
:1011200011962131310569F744C05F5FF801E50F81
:10113000F11D80818823C9F32F2D30E02F5E3F4FB2
:101140002C153D0509F051E0952F652F70E00CC07E
:10115000E92FF0E0DF01A61BB70BA00FB11FE00FD6
:10116000F11F80818C939F5F913190F3D501A20F85
:10117000B31F952F08C0F201E91BF109E00FF11F21
:101180008D91808391509923B1F7D801F30120E02C
:101190009C918081981321E02D933196E815F905F3
:1011A000B1F7F50E8F2D90E041968C159D057CF0E2
:1011B00010C0C72EDD2491E1492E512C3E01089428
:1011C000611C711C82E1882E912C8C0E9D1E50E0BA
:1011D000ADCF61960FB6F894DEBF0FBECDBFCF91F5
:1011E000DF911F910F91FF90DF90CF90BF90AF9054
:1011F0009F908F907F906F905F904F9008959C018B
:1012000001C06F5FF901E60FF11D80818823C9F3EA
:10121000862F08950F931F93CF93DF938C0120E0C7
:1012200031E11BC0A92FB0E0E981F0E083E0EE0FCF
:10123000FF1F8A95E1F7EA0FFB1FE60FF71FAC0FC0
:10124000BD1F16968C918083FA0180818F5F808309
:101250009F5F8D81981730F32F5FF80182812817E7
:1012600038F4239FE0011124C00FD11F90E0F1CF8B
:10127000DF91CF911F910F910895AC0130E015C01F
:10128000FA01E30FF11D80818D3711F410820CC03B
:101290008E3751F4232FFA01E20FF11D81818083F3
:1012A0002F5F2617C0F361503F5F361748F308954C
:1012B0001F93982F92959F70182F1F709A3018F4D3
:1012C000892F805D02C0892F895C0E9425041A3015
:1012D00018F4812F805D02C0812F895C0E94250453
:1012E00087EB93E00E942D041F9108954F925F9227
:1012F0006F927F928F929F92AF92BF92CF92DF9226
:10130000EF92FF920F931F93CF93DF932B01642EE5
:10131000722E6C0188249924A42EBB240894A10861
:10132000B1083DC0882D90E08A159B05C9F477204F
:10133000B9F0C0E0D0E08C2F890D8201080F111D9B
:10134000D8018C910E945809F601EC0FF11DD801CB
:101350008C91868321967C1670F7F601758218C0F1
:101360007601C0E0D0E0892D8C0F8201080F111D9D
:10137000D8018C910E945809F8018081D7011696F6
:101380008C9321960894E11CF11CC830D10559F7C3
:101390008394E1E1F0E0CE0EDF1EF8E09F0E8614AC
:1013A00008F2DF91CF911F910F91FF90EF90DF90A6
:1013B000CF90BF90AF909F908F907F906F905F90F5
:1013C0004F9008950F931F93CF93DF93EC01062F57
:1013D00089EB93E00E942D0481E1089F8001112494
:1013E000C00FD11F88810E94580989810E94580925
:1013F0008A810E9458098B810E9458098C810E9421
:1014000058098D810E94580900E007C0FE01E00FD5
:10141000F11D86810E9458090F5F8D810817B0F376
:101420008E850E9458098F850E94580988890E94DC
:10143000580981EC93E00E942D04DF91CF911F9118
:101440000F910895CF92DF92FF920F931F93CF9346
:10145000DF938C016B01F42E84EC93E00E942D0449
:101460008DE7F601808381E1F89ED0011124A00F61
:10147000B11F11968C911197818312968C911297BE
:10148000828313968C911397838314968C9114976F
:10149000848315968C911597858396E007C0CC0DB3
:1014A000DD1DFD01E20FF11D86818883292F265065
:1014B00015968C911597C92FD0E09F5F281778F368
:1014C000CC0DDD1D1E968C911E978883F601E90FC9
:1014D000F11D1F968C9180839F5FF601E90FF11D2E
:1014E0008DE78083592F41E06EE718C0D601A20F27
:1014F000B31F8C918D57823080F4952F9F5F292FD9
:1015000007C0F601E20FF11D8291319680832150D0
:101510004217B8F36C934F5F592F4F5F242F30E081
:10152000852F90E001972817390704F3DF91CF91B9
:101530001F910F91FF90DF90CF9008952F923F92CF
:101540004F925F926F927F928F929F92AF92BF92D3
:10155000CF92DF92EF92FF920F931F93DF93CF937F
:1015600000D000D0CDB7DEB7082F2B01142F3A835F
:10157000298382E090E061E170E00E94EB12382E56
:10158000292E89EC93E00E942D0486EE93E00E94C0
:101590002D04EE24FF24F201EE0DFF1D80810E9438
:1015A00058090894E11CF11C88E0E816F10499F749
:1015B00081EC93E00E942D0427E0622E6122412FEE
:1015C000469546954695662011F4842E02C0842ED9
:1015D00083948EEE93E00E942D04882D0E9458097A
:1015E00081EC93E00E942D04832D922D9C016901D2
:1015F000F90180E021E098E009C0818382822383A1
:10160000048395831786108A8F5F71968815A8F3D7
:1016100081E094E00E942D0477249924A82CBB2417
:101620000894A108B10845C0872D90E08A159B0554
:10163000F9F46620E9F01C821B82FB808F2D890D56
:101640008201080F111DD8018C910E945809F601E2
:10165000EF0DF11DD8018C918683EB81FC813196D1
:10166000FC83EB836E1648F7D60115966C921AC070
:1016700076011C821B828B81890D8201080F111D4E
:10168000F80180810E945809D8018C91F701868366
:101690008B819C8101969C838B830894E11CF11CB7
:1016A000089749F77394A1E1B0E0CA0EDB1EB8E0D9
:1016B0009B0E781408F4B8CF81EC93E00E942D04BF
:1016C000832D922D60E00E94E2098EE190E061E0BE
:1016D00070E00E94EB12D92E182FC82E88E094E0FB
:1016E0000E942D04832D922D612F7D2D482D0E9467
:1016F000220A812F9D2D5C0109811A8192E2E92E37
:10170000F12CEA0CFB1CF50180810E945809D501DF
:101710008C91F80181938F011D925D01AE15BF057B
:1017200091F7E981FA81868E832D922D0E94B41360
:10173000C6010E94B4130F900F900F900F90CF919D
:10174000DF911F910F91FF90EF90DF90CF90BF90AE
:10175000AF909F908F907F906F905F904F903F9051
:101760002F900895BF92CF92DF92EF92FF920F9346
:101770001F93CF93DF936C01C60ED11CC7E0D0E05E
:10178000BB24F6018081882301F1BE01882777FD03
:101790008095982F0E94F90F9B01AC0160E070E0EA
:1017A00080E090E40E9434147B018C016B2D70E08A
:1017B000882777FD8095982F0E94F90FA80197013F
:1017C0000E949C0F0E94F30DB62E0894C11CD11CE0
:1017D000209711F02197D5CF8B2DDF91CF911F91BD
:1017E0000F91FF90EF90DF90CF90BF900895AF9250
:1017F000BF92CF92DF92EF92FF920F931F93CF93FE
:10180000DF93B82EEB01C40FD11D37E0C32ED12CCE
:10181000AA24A394B601882777FD8095982F0E946B
:10182000F90F9B01AC0160E070E080E090E40E9461
:1018300034147B018C016B2D70E0882777FD809537
:10184000982F0E94F90FA80197010E946B0F7B014E
:101850008C010E94571077FD06C0A882C801B7010D
:101860000E94F30DB62E0894C108D10821968FEF7F
:10187000C8168FEFD80671F6DF91CF911F910F91A7
:10188000FF90EF90DF90CF90BF90AF900895AF9210
:10189000BF92CF92DF92EF92FF920F931F93CF935D
:1018A000DF937C015B01042FC22E89E790E061E0A9
:1018B00070E00E94EB12EC0181E1089F800111248D
:1018C000E00EF11EF7018181BE0140E00E94F70B9E
:1018D000F7018281BE0148E00E94F70BF701838186
:1018E000BE0140E10E94F70BF7018481BE0148E18F
:1018F0000E94F70BF7018581BE0140E20E94F70BC1
:1019000000E010E20AC01D2DF701E00FF11D8681F5
:10191000BE014D2D0E94F70B0F5FF701858148E056
:10192000D42ED10E081778F38685BE014D2D0E9466
:10193000F70B1D2D185FF7018785BE01412F0E940F
:10194000F70B185FCE01B501412F0E944E08CC2045
:1019500099F04D2D21E00EC0D501A20FB11D30E050
:10196000FE01E40FF11D90818C91981331E03C93BE
:101970002F5F4F5F141780F7CE010E94B413DF91E1
:10198000CF911F910F91FF90EF90DF90CF90BF907C
:10199000AF9008957F928F929F92AF92BF92CF9215
:1019A000DF92EF92FF920F931F93CF93DF935C012F
:1019B0008B01742ED22E81E190E061E070E00E94F4
:1019C000EB12F82EE92EF80180818D3709F07BC0EB
:1019D00061E0F801E60FF11DE081EE3711F46E5F72
:1019E000F8CF6F5FED37A9F7C8014DE72EE70E94EA
:1019F0003D09F8018381D81621F0FFEFDF1609F0C9
:101A000062C081E1789EE0011124CA0DDB1DF8015E
:101A10008181898382818A8383818B8384818C8382
:101A200055E0C52ED12CC00ED11E85818D8390E04E
:101A30000BC0E92FF0E0DE01AE0FBF1FE00FF11F7A
:101A4000868116968C939F5FF6018081981788F3A4
:101A50004701F801E80FF11D86818E87F801858125
:101A6000080F111DF80187818F87C5016F2D7E2D0D
:101A7000472D20E00E94470C8F2D9E2DFC0110E089
:101A80009F01205F3F4F8181813009F411E0319641
:101A9000E217F307C1F7892D982D0E94B413113076
:101AA00091F419821A821B821C821D8290E005C06B
:101AB000FE01E90FF11D16829F5FF60180819817E4
:101AC000B8F31E861F86DF91CF911F910F91FF9073
:101AD000EF90DF90CF90BF90AF909F908F907F90CE
:101AE00008952F923F924F925F926F927F928F92C2
:101AF0009F92AF92BF92CF92DF92EF92FF920F939D
:101B00001F93DF93CF930F92CDB7DEB71C012B014C
:101B10003A014901580183E090E061E170E00E94E0
:101B2000EB128C018EE190E061E070E00E94EB121C
:101B3000C92EE82EF92E89838FEFF8018383DD24E7
:101B400037C0FFE1DF9EA00111244A0D5B1DFA01A1
:101B500080818F3F61F120E030E0F701E20FF31F59
:101B6000DA01A20FB31F8C9180832F5F3F4F2E317C
:101B7000310599F7C80169817C2D4D2DF80123812C
:101B80000E94CA0C2D2D30E0F501868D90E0019762
:101B90002817390761F4C801B201A3010E940A099C
:101BA000F8018381F101808381E0F4018083D39483
:101BB000F501868DD81628F2C8010E94B4130F9043
:101BC000CF91DF911F910F91FF90EF90DF90CF9019
:101BD000BF90AF909F908F907F906F905F904F904D
:101BE0003F902F900895EF92FF920F931F937B01E8
:101BF0008C0120E030E040E05FE40E94C90F8823C0
:101C00008CF0C801B70120E030E040E05FE40E94C2
:101C10006B0F0E9457109B01AC0120503040404098
:101C2000504806C0C801B7010E9457109B01AC0183
:101C3000B901CA011F910F91FF90EF900895A0E0A4
:101C4000B0E0E5E2FEE00C94B412DC012B01FA01F5
:101C50009C91923008F439C1EB018881823008F4FC
:101C600033C1943069F4843009F02FC111969C91EE
:101C700011978981981709F428C1A1E2B4E025C120
:101C8000843009F421C18230A9F4923009F01DC1D9
:101C90009A01AD0188E0EA010990AE01E9010992DB
:101CA0009E018150C1F7E201898111969C9189239F
:101CB000818308C1923009F407C112962D903C909F
:101CC0001397EB018A819B811496AD90BD90CD90C6
:101CD000DC901797EC80FD800E811F819101281BFD
:101CE000390BB90137FF04C066277727621B730BD6
:101CF000603271050CF061C0121613066CF53701E5
:101D00004801062E04C096948794779467940A94A9
:101D1000D2F721E030E040E050E004C0220F331F52
:101D2000441F551F6A95D2F7215030404040504023
:101D30002E213F2140235123211531054105510515
:101D400021F021E030E040E050E079018A01E6280E
:101D5000F728082919293CC0232BD1F1260E371E5C
:101D600035014601062E04C09694879477946794B3
:101D70000A94D2F721E030E040E050E004C0220FA6
:101D8000331F441F551F6A95D2F721503040404001
:101D900050402A213B214C215D212115310541056F
:101DA000510521F021E030E040E050E059016A01A6
:101DB000A628B728C828D9280BC0821593052CF06F
:101DC0001C01AA24BB24650103C0EE24FF24870163
:101DD00011969C91D20111968C91981709F445C0E7
:101DE000992339F0A80197012A193B094C095D098B
:101DF00006C0A60195012E193F09400B510B57FD56
:101E000008C011823382228224833583468357831C
:101E10001DC081E081833382228288279927DC01DB
:101E2000821B930BA40BB50B84839583A683B78386
:101E30000DC0220F331F441F551F24833583468353
:101E40005783828193810197938382832481358193
:101E500046815781DA01C9010197A109B1098F5F54
:101E60009F4FAF4FBF4328F30BC091833382228231
:101E7000EA0CFB1C0C1D1D1DE482F58206831783F2
:101E800083E08083248135814681578157FF1AC0C2
:101E9000C901AA2797FDA095BA2F81709070A070F4
:101EA000B0705695479537952795822B932BA42B89
:101EB000B52B84839583A683B78382819381019612
:101EC00093838283DF0101C0D201CD01CDB7DEB79C
:101ED000E2E10C94D012A0E2B0E0E1E7FFE00C9464
:101EE000C01269837A838B839C832D833E834F83C7
:101EF0005887E9E0EE2EF12CEC0EFD1ECE01019686
:101F0000B7010E94CF118E010F5E1F4FCE010596C3
:101F1000B8010E94CF118A8991E089278A8BC70175
:101F2000B801AE01475E5F4F0E941F0E0E94FA107B
:101F3000A096E6E00C94DC12A0E2B0E0E2EAFFE05A
:101F40000C94C01269837A838B839C832D833E8398
:101F50004F835887F9E0EF2EF12CEC0EFD1ECE01D9
:101F60000196B7010E94CF118E010F5E1F4FCE0167
:101F70000596B8010E94CF11C701B801AE01475EB6
:101F80005F4F0E941F0E0E94FA10A096E6E00C948C
:101F9000DC12A8E1B0E0EFECFFE00C94C012698322
:101FA0007A838B839C832D833E834F83588789E07C
:101FB000E82EF12CEC0EFD1ECE010196B7010E9419
:101FC000CF118E010F5E1F4FCE010596B8010E9402
:101FD000CF118985823040F08989823028F0C7018D
:101FE000B8010E94471201C08FEF6896E6E00C949A
:101FF000DC12A8E0B0E0EFEFFFE00C94BD129B0113
:10200000AC0183E08983DA01C9018827B7FD839594
:102010009927AA27BB27B82E21153105410551055F
:1020200019F482E089833AC08823A9F0203080E047
:10203000380780E0480780E8580729F460E070E03E
:1020400080E09FEC30C0EE24FF248701E21AF30AFF
:10205000040B150B02C079018A018EE1C82ED12C28
:10206000DC82CB82ED82FE820F831887C801B70124
:102070000E94AB1001971816190684F4082E04C0AC
:10208000EE0CFF1C001F111F0A94D2F7ED82FE8296
:102090000F831887C81AD90ADC82CB82BA82CE0194
:1020A00001960E94FA102896E9E00C94D912ACE04F
:1020B000B0E0EDE5F0E10C94C41269837A838B8380
:1020C0009C83CE010196BE016B5F7F4F0E94CF11B2
:1020D0008D81823061F1823050F1843021F48E8123
:1020E000882351F12EC02F81388537FD20C06E81A5
:1020F0002F3131051CF06623F9F023C08EE190E00A
:10210000821B930B29853A854B855C8504C05695C7
:102110004795379527958A95D2F76623B1F0509564
:102120004095309521953F4F4F4F5F4F0EC020E0B7
:1021300030E040E050E009C02FEF3FEF4FEF5FE7A6
:1021400004C020E030E040E050E8B901CA012C961C
:10215000E2E00C94E012EF92FF920F931F937B0149
:102160008C0180E0E81680E0F80681E0080780E056
:10217000180788F48FEFE816F1040105110531F016
:1021800028F088E090E0A0E0B0E017C080E090E0A8
:10219000A0E0B0E012C080E0E81680E0F80680E041
:1021A000080781E0180728F088E190E0A0E0B0E09F
:1021B00004C080E190E0A0E0B0E020E230E040E048
:1021C00050E0281B390B4A0B5B0B04C01695079592
:1021D000F794E7948A95D2F7F701E75DFB4F80818A
:1021E000281B310941095109C9011F910F91FF9025
:1021F000EF900895DF92EF92FF920F931F93FC01EF
:10220000E480F58006811781D1808081823048F496
:1022100080E090E0A0E1B0E0E82AF92A0A2B1B2B2D
:10222000A5C0843009F49FC0823021F4EE24FF243D
:10223000870105C0E114F1040105110519F4E0E07E
:10224000F0E096C0628173819FEF623879070CF0ED
:102250005BC022E83FEF261B370B2A3131052CF0FB
:1022600020E030E040E050E02AC0B801A701022E93
:1022700004C076956795579547950A94D2F781E003
:1022800090E0A0E0B0E004C0880F991FAA1FBB1F18
:102290002A95D2F70197A109B1098E219F21A02388
:1022A000B1230097A105B10521F081E090E0A0E005
:1022B000B0E09A01AB01282B392B4A2B5B2BDA01BA
:1022C000C9018F779070A070B07080349105A1051E
:1022D000B10539F427FF09C0205C3F4F4F4F5F4FD6
:1022E00004C0215C3F4F4F4F5F4FE0E0F0E02030F3
:1022F000A0E03A07A0E04A07A0E45A0710F0E1E0A6
:10230000F0E079018A0127C06038710564F5FB01AE
:10231000E158FF4FD801C7018F779070A070B0705F
:1023200080349105A105B10539F4E7FE0DC080E4C4
:1023300090E0A0E0B0E004C08FE390E0A0E0B0E067
:10234000E80EF91E0A1F1B1F17FF05C016950795FB
:10235000F794E794319687E016950795F794E794FC
:102360008A95D1F705C0EE24FF248701EFEFF0E056
:102370006E2F679566276795902F9F77D794DD24FA
:10238000D7948E2F8695492F462B582F5D29B7015C
:10239000CA011F910F91FF90EF90DF900895FC010B
:1023A000DB01408151812281622F6F7770E0221F13
:1023B0002227221F9381892F880F822B282F30E01C
:1023C000991F9927991F11969C93119721153105F3
:1023D000A9F5411551056105710511F482E037C079
:1023E00082E89FEF13969C938E9312979A01AB010C
:1023F00067E0220F331F441F551F6A95D1F783E012
:102400008C930DC0220F331F441F551F12968D91C0
:102410009C911397019713969C938E93129720305B
:1024200080E0380780E0480780E4580758F31496A6
:102430002D933D934D935C93179708952F3F31054E
:1024400079F4411551056105710519F484E08C9307
:10245000089564FF03C081E08C9312C01C9210C0E9
:102460002F57304013963C932E93129783E08C9312
:1024700087E0440F551F661F771F8A95D1F7706458
:1024800014964D935D936D937C93179708951F93C6
:10249000DC01FB019C91923008F447C080818230BE
:1024A00008F443C0943051F411961C91843099F58E
:1024B0008181682F70E0611B71093FC0843021F079
:1024C000923031F48230B9F18181882389F12DC0B5
:1024D00011961C9111978230F1F081811817D9F46F
:1024E00012962D913C9113978281938182179307C5
:1024F00094F028173907BCF014968D919D910D909A
:10250000BC91A02D24813581468157812817390738
:102510004A075B0718F4112341F00AC0821793079A
:10252000A407B50740F4112319F061E070E005C07D
:102530006FEF7FEF02C060E070E0CB011F91089564
:10254000AA1BBB1B51E107C0AA1FBB1FA617B707D9
:1025500010F0A61BB70B881F991F5A95A9F78095F5
:102560009095BC01CD0108952F923F924F925F92BA
:102570006F927F928F929F92AF92BF92CF92DF9293
:10258000EF92FF920F931F93CF93DF93CDB7DEB7F8
:10259000CA1BDB0B0FB6F894DEBF0FBECDBF09948C
:1025A0002A88398848885F846E847D848C849B84E3
:1025B000AA84B984C884DF80EE80FD800C811B81F1
:1025C000AA81B981CE0FD11D0FB6F894DEBF0FBE20
:1025D000CDBFED0108950F931F93CF93DF93689FB5
:1025E0008001699F100D789F100D1124C8010E9471
:1025F0000713EC01009729F060E070E0A8010E9449
:102600000C14CE01DF91CF911F910F910895CF93BC
:10261000DF93BC018230910510F462E070E0A0917C
:102620008205B0918305ED01E0E0F0E040E050E08C
:1026300021C0888199818617970769F48A819B81D7
:10264000309719F09383828304C09093830580931D
:102650008205FE0134C06817790738F44115510529
:1026600019F08417950708F4AC01FE018A819B815B
:102670009C01E9012097E9F641155105A9F1CA012C
:10268000861B970B049708F4BA01E0E0F0E02AC03B
:102690008D919C91119784179507F9F4641775072C
:1026A00081F412968D919C911397309719F0938332
:1026B000828304C09093830580938205FD01329646
:1026C0004FC0CA01861B970BFD01E80FF91F6193EC
:1026D000719302978D939C9343C0FD0182819381F6
:1026E0009C01D9011097A1F68091800590918105F8
:1026F000892B41F480912B0590912C0590938105B5
:102700008093800540912D0550912E05411551056E
:1027100041F44DB75EB78091290590912A05481B79
:10272000590B209180053091810524173507B0F4AD
:10273000CA01821B930B8617970780F0AB014E5F8F
:102740005F4F8417950750F0420F531F5093810538
:1027500040938005F9016193719302C0E0E0F0E0DD
:10276000CF01DF91CF910895CF93DF93009709F4C4
:1027700050C0EC0122971B821A82A0918205B09171
:102780008305109709F140E050E0AC17BD0708F150
:10279000BB83AA83FE0121913191E20FF31FAE1793
:1027A000BF0779F48D919C911197280F391F2E5FE7
:1027B0003F4F3983288312968D919C9113979B8369
:1027C0008A834115510571F4D0938305C093820526
:1027D00020C012968D919C911397AD01009711F036
:1027E000DC01D3CFFA01D383C28321913191E20F6F
:1027F000F31FCE17DF0769F488819981280F391FED
:102800002E5F3F4FFA01318320838A819B8193831E
:102810008283DF91CF910895DC0101C06D93415017
:102820005040E0F70895FB019F01E8944230C4F066
:102830004532B4F44A3029F497FB1EF49095819503
:102840009F4F642F77270E94A012805D8A330CF07F
:10285000895D8193CB010097A1F716F45DE2519356
:102860001082C9010C948014FA01EE0FFF1F3096FC
:102870002105310599F16115710561F48038BFE3D7
:102880009B0749F168949038810561F08038BFEF6B
:102890009B0741F0992342F5FF3FE10531052105F2
:1028A00011F1E8940894E795D901AA2329F4AB2FF4
:1028B000BE2FF85FD0F310C0FF5F70F4A695E0F76D
:1028C000F73950F019F0FF3A38F49F779F930CD006
:1028D0000F9007FC905808953EF059C060E070E0FA
:1028E00080E89FE308954FE79F775F934F933F936F
:1028F0002F93E0D02F913F914F915F914ED115C012
:10290000DC01FC01672F71917723E1F7329704C056
:102910007C916D9370836291AE17BF07C8F30895E1
:1029200019F40EF02EC07DC032C061D0C8F39638C5
:10293000C0F707F80F92E8942BE33AEA48EB5FE719
:102940003AD10F920F920F924DB75EB70F92F2D01D
:10295000ECE7F0E01FD04F915F91EF91FF91E5958B
:10296000EE1FFF1F49F0FE57E0684427EE0F441F9B
:10297000FA95E1F74195550B64D00F9007FE58C0CA
:10298000089597F99F6780E870E060E008959FEFF1
:1029900080EC0895DF93CF931F930F93FF92EF92F4
:1029A000DF927B018C01689405C0DA2EEF0101D122
:1029B000FE01E894A5912591359145915591AEF38D
:1029C000EF015BD1FE019701A801DA9479F7DF905E
:1029D000EF90FF900F911F91CF91DF91089557FDD8
:1029E0009058440F551F59F05F3F71F04795880F7D
:1029F00097FB991F61F09F3F79F087950895121614
:102A000013061406551FF2CF4695F1DF08C01616BF
:102A100017061806991FF1CF869571056105089470
:102A20000895E894BB2766277727CB0197F9089587
:102A30009B01AC0160E070E080E89FE371C1A1CF31
:102A4000D7C1D5DFE8F39923D9F3940F511DBBF318
:102A50009150504094F059F0882332F0660F771F60
:102A6000881F91505040C1F79E3F510544F7880F91
:102A7000911D9695879597F908955F3FACF0983E24
:102A80009CF0BB27869577956795B79508F4B1605C
:102A90009395C1F7BB0F58F711F460FFE8CF6F5F54
:102AA0007F4F8F4F9F4FE3CFBDCF0EF0A1C16FCFB0
:102AB000689467CF9CDFC8F39923D1F3C6F3DF9303
:102AC000CF931F930F93FF92C92FDD2788232AF0FE
:102AD0002197660F771F881FDAF720E030E040E883
:102AE0005FEB9FE3883920F0803E30F021968F77AE
:102AF00023DAE4EAF0E003C01FDAE1EDF0E04ADFB8
:102B00008B01BE01EC01FB2E6F5771097595771F84
:102B1000880B990B6EDA28E132E741E35FE349D095
:102B2000AF2D9801AE01FF900F911F91CF91DF91D2
:102B3000A4D07AC1FA01DC01AA0FBB1F9B01AC0132
:102B4000BF5728F422273327442750781FC0B75196
:102B500088F4AB2F0024469537952795011CA39543
:102B6000D2F3002069F0220F331F441FB395DAF32C
:102B70000DD0B1C961307105A0E88A07B94630F4BB
:102B80009B01AC016627772788279078309621F043
:102B9000208331834283538308950BD045C136D1BE
:102BA00028F03BD118F0952309F0EBCEF0CE11249C
:102BB00039CF15DFA0F3959FD1F3950F50E0551F46
:102BC000629FF001729FBB27F00DB11D639FAA2782
:102BD000F00DB11DAA1F649F6627B00DA11D661FD1
:102BE000829F2227B00DA11D621F739FB00DA11DF2
:102BF000621F839FA00D611D221F749F3327A00DAC
:102C0000611D231F849F600D211D822F762F6A2F47
:102C100011249F5750408AF0E1F088234AF0EE0FCC
:102C2000FF1FBB1F661F771F881F91505040A9F7D9
:102C30009E3F510570F0A5CEF5CE5F3FECF3983E78
:102C4000DCF3869577956795B795F795E7959F5F40
:102C5000C1F7FE2B880F911D9695879597F90895DA
:102C6000D5D030F0DAD020F031F49F3F11F41EF4CB
:102C70008ECE0EF4E095E7FB84CEE92FB0DE80F334
:102C8000BA17620773078407950718F071F49EF569
:102C9000C8CE0EF4E0950B2EBA2FA02D0B01B90172
:102CA00090010C01CA01A0011124FF27591B99F0C2
:102CB000593F50F4503E68F11A16F040A22F232FCE
:102CC000342F4427585FF3CF469537952795A7951E
:102CD000F0405395C9F77EF41F16BA0B620B730BC5
:102CE000840BBAF09150A1F0FF0FBB1F661F771F36
:102CF000881FC2F70EC0BA0F621F731F841F48F4EB
:102D0000879577956795B795F7959E3F08F0B3CF70
:102D10009395880F08F09927EE0F9795879508955A
:102D20000CD082C07AD040F071D030F021F45F3FF7
:102D300019F027CE511176CE2ACE51DE98F3992381
:102D4000C9F35523B1F3951B550BBB27AA2762176F
:102D50007307840738F09F5F5F4F220F331F441FB4
:102D6000AA1FA9F333D00E2E3AF0E0E830D09150EC
:102D70005040E695001CCAF729D0FE2F27D0660FD9
:102D8000771F881FBB1F261737074807AB07B0E818
:102D900009F0BB0B802DBF01FF2793585F4F2AF02E
:102DA0009E3F510568F0EDCD3DCE5F3FECF3983E80
:102DB000DCF3869577956795B795F7959F5FC9F78B
:102DC000880F911D9695879597F90895E1E0660F14
:102DD000771F881FBB1F621773078407BA0720F08D
:102DE000621B730B840BBA0BEE1F88F7E0950895F6
:102DF0009F3F31F0915020F4879577956795B7956F
:102E0000880F911D9695879597F9089500240A9447
:102E10001616170618060906089500240A941216B5
:102E20001306140605060895092E0394000C11F4E8
:102E3000882352F0BB0F40F4BF2B11F460FF04C095
:0E2E40006F5F7F4F8F4F9F4F0895F894FFCF25
:102E4E000A0D496E6974696174696E670D0A0D0A1F
:102E5E000D0A000A0D41505020203A2020204255E4
:102E6E0054544F4E20505245535345440A0D000AB8
:102E7E000D41505020203A202020555044415445B9
:102E8E00204C45440A0D000A0D5452414E533A202F
:102E9E0020205452414E534D49540A0D000A0D54F0
:102EAE0052414E533A20202052452D5452414E53FA
:102EBE004D49540A0D000A0D5452414E533A2020EA
:102ECE002053454E442041434B0A0D000A0D4E45FA
:102EDE005420203A20202042524F41444341535423
:102EEE00494E470A0D000A0D4E455420203A202027
:102EFE0020524542524F414443415354494E470D8F
:102F0E000A000A0D4E455420203A20202053454EEB
:102F1E0044494E4720444154410D0A000A0D4E4586
:102F2E005420203A202020524543454956494E47C9
:102F3E0000FF0001020201010000FF00010209FF73
:102F4E0000010202010100000000FF0003FF020069
:102F5E00000000FE0102FF0200000000FE0103FF60
:102F6E000200000000FF00020309FF00010202013F
:102F7E000100000000FE00020109FF000102020133
:102F8E0001000000000A0A0D202020202020202011
:102F9E00202020204E455420434845434B53554D49
:102FAE00205041535345440A0A0D000A0D484F5014
:102FBE00204C494D49542052454143484544000A4E
:102FCE000D666972737420706C6163653A2030000F
:102FDE000A0D666972737420706C6163653A2032F3
:102FEE00000A0D77696C6C20686F70000A0D7365AE
:102FFE00636F6E6420706C6163653A20300A000A5C
:10300E000D7365636F6E6420706C6163653A203278
:10301E000A000A0A0D2020202020202020202044F3
:10302E0041544120434F52525550544544202D2D6A
:10303E0020444953434152440A0A0D000A0A0D53D3
:10304E00484F554C44204E4F54204245204845523F
:10305E0045000D0A476976696E67207570207265A6
:10306E0073656E64696E6720746865206D65737331
:10307E00616765206E6F772E2E2E0D0A000A0D5495
:10308E0052414E533A20202052454345495645441D
:10309E002041434B0A0D000A0D5452414E533A2023
:1030AE0020205041434B4147494E472041434B0A54
:1030BE000D00544C207265636569766520736567F3
:1030CE006D656E742000203A2020000D0A00544CCD
:1030DE002073656E64207365676D656E74200044A1
:1030EE00657374696E6174696F6E20446576696389
:1030FE0065203A2000010120004672616D653A207C
:10310E00000D0A004845583A00444C4C2020203A05
:10311E0020202020456E6361706C73756C6174693C
:10312E006E670D0A0A00496E7075743A20004E756E
:10313E006D626572206F66206672616D65733A20EE
:10314E0000446174613A200046696E616C3A200059
:10315E000001010101010101010101010100000055
:10316E000100000000000000000001020203030342
:10317E0003040404040404040405050505050505FB
:10318E0005050505050505050506060606060606DA
:10319E0006060606060606060606060606060606C1
:1031AE0006060606060606060607070707070707AA
:1031BE000707070707070707070707070707070791
:1031CE000707070707070707070707070707070781
:1031DE000707070707070707070707070707070771
:1031EE00070707070707070707080808080808085A
:1031FE000808080808080808080808080808080841
:10320E000808080808080808080808080808080830
:10321E000808080808080808080808080808080820
:10322E000808080808080808080808080808080810
:10323E000808080808080808080808080808080800
:10324E0008080808080808080808080808080808F0
:10325E0008080808080808080808080808080808E0
:10326E00080808080808080808200084050000005F
:00000001FF
