:100000000C947F000C945B020C941D020C949C00D9
:100010000C949C000C949C000C949C000C949C00F0
:100020000C949C000C9420050C949C000C949C0057
:100030000C949C000C949C000C949C000C949C00D0
:100040000C949C000C949C000C949C000C949C00C0
:100050000C949C000C949C000C949C000C949C00B0
:100060000C949C000C949C000C949C000C949C00A0
:100070000C949C000C949C000C949C0007634236EA
:10008000B79BD8A71A39685618AEBAAB558C1D3C29
:10009000B7CC5763BD6DEDFD753EF6177231BF00ED
:1000A0000000803F08000000BE922449123EABAA27
:1000B000AA2ABECDCCCC4C3E00000080BEABAAAA82
:1000C000AA3E00000000BF000000803F00000000CA
:1000D00000084178D3BB4387D1133D190E3CC3BD03
:1000E0004282AD2B3E68EC8276BED98FE1A93E4CB0
:1000F00080EFFFBE01C4FF7F3F000000000011241D
:100100001FBECFEFD0E1DEBFCDBF14E0A0E0B1E075
:10011000E8E0FDE202C005900D92AA3DB107D9F7D3
:1001200015E0AAEDB4E001C01D92AF32B107E1F7CE
:100130000E949E000C9482160C9400002F923F9215
:100140004F925F926F927F928F929F92AF92BF92E7
:10015000CF92DF92EF92FF920F931F93DF93CF9393
:10016000CDB7DEB7A8970FB6F894DEBF0FBECDBFF0
:1001700019828EE190E061E070E00E9448127C01FB
:100180000E94200480E091E00E943B048E01075E03
:100190001F4FC80164E170E00E946205A4E1B5E070
:1001A000F8018AE001900D928150E1F70E94320837
:1001B0001B861C8685E090E06FE170E00E9448128B
:1001C000B92EC82ED92EA82E93E0692E712C6E0C54
:1001D0007F1C8BE9482E512C4C0C5D1C80911E0518
:1001E0008823A9F183E191E00E943B0400911E0560
:1001F00010911F0520912005309121054091220585
:100200005091230560912405709125058091260564
:10021000909127050E94E5062BA33CA34DA35EA366
:100220006FA378A7DE015396FE01B39686E0019096
:100230000D928150E1F784E195E02B893C894D894D
:100240005E896F89788D0E945D0410921E058C85F1
:10025000882361F08FE291E00E943B0460912505C4
:1002600070912605809127050E94E20784E195E0C0
:100270000E945404882369F50E942D08882349F5BB
:1002800087E491E00E943B0484E195E00E94AB0486
:100290002BA33CA34DA35EA36FA378A7DE011D96FD
:1002A000FE01B39686E001900D928150E1F7288817
:1002B0003F848D849E840E9421088AED94E0B401DD
:1002C000432D222D0E94CA0280E395E70197F1F7A2
:1002D00013C080912805882379F08DE591E00E9474
:1002E0003B040E9409058AED94E0B401432D222DC0
:1002F0000E94CA02109228058B85882379F086E730
:1003000091E00E943B046F8178858AED94E04985F5
:100310002A850E94CA021B860E94FF04CE01029613
:10032000B701AE014D5F5F4F9E012F5F3F4F8501CB
:100330000E942A0C8091F704882371F08CE891E0E8
:100340000E943B048FEF6DEE74E049E095010E943E
:10035000AC0C1092F70442CF8091F804882371F01E
:1003600086EA91E00E943B048FEF6DEE74E049E075
:1003700095010E94AC0C1092F80430CF8091F904E2
:10038000882381F082EC91E00E943B048091EC0490
:100390006EEF74E04091F60495010E94AC0C10924F
:1003A000F9041CCF8981882349F1F30180818230CF
:1003B00019F4F701828304C0882311F4F701128233
:1003C00081E0F30180834A812B8119828AED94E0D8
:1003D000B7010E94430396010EC0F901E80FF91F0F
:1003E000108201968E319105C1F7215E3F4F241591
:1003F000350509F4F3CE80E090E0EFCF8091FA0468
:10040000882309F4EBCE8CED91E00E943B048BED48
:1004100094E09D838C838091EA048E838091DA043A
:10042000BE016C5F7F4FAE01495F5F4F25E235E053
:100430000E9486051092FA04D1CE1F920F920FB639
:100440000F921124FF920F931F932F933F934F937B
:100450005F936F937F938F939F93AF93BF93EF932C
:10046000FF930FE115E0FF24F394F0921F0582E063
:1004700080932005809321050D5F1F4F0E94B607D2
:1004800060932205F80171838283F0921E05FF912B
:10049000EF91BF91AF919F918F917F916F915F91FC
:1004A0004F913F912F911F910F91FF900F900FBE91
:1004B0000F901F9018951F920F920FB60F92112454
:1004C0000F931F932F933F934F935F936F937F935C
:1004D0008F939F93AF93BF93EF93FF930FE115E03B
:1004E00010921F0582E080932005109221050D5F78
:1004F0001F4F0E94B60760932205F8017183828323
:1005000081E080931E05FF91EF91BF91AF919F9184
:100510008F917F916F915F914F913F912F911F919B
:100520000F910F900FBE0F901F901895CF93DF93F0
:10053000DC014423C1F420E090E0C62FD0E02696F1
:1005400006C0EA0FFB1F84A180FD9F5F2F5FE22F93
:10055000F0E0CE17DF07ACF790FF19C0CA0FDB1F22
:1005600081E08CA314C0423091F4FC01E60FF11D30
:1005700097968C91979794969C919497892781A7A9
:1005800098968C91989796969C91892782A7DF914F
:10059000CF9108951F93CF93DF93EC01122F1BA2ED
:1005A000493061F04A3018F4483071F405C04A30DF
:1005B00039F04B3049F406C08FE005C080E103C03C
:1005C00081E101C082E18C8F8FEF8B8B1C8A21E04F
:1005D0002D8B8E8B92E09F8B188E198E1A8E1B8E10
:1005E0008CA31DA22EA31FA348A7DE01999620E08D
:1005F00030E007C0FB01E20FF31F80818D932F5F76
:100600003F4F2417B8F3FE01E40FF11D11A612A607
:10061000CE01642F40E00E949602188381E08D8F06
:100620001E8E1F8E18A2DF91CF911F910895FB019E
:10063000442369F430E090E005C0808180FD9F5F35
:100640003F5F31963217C8F390FD1BC013C0423094
:10065000B9F442813481838190818927E20FF11DB1
:10066000329790813296891761F4342731978081CF
:10067000381739F485E492E00E943B0481E0089544
:10068000089580E00895FF920F931F93CF93DF9317
:10069000EC018B01F22EFB0180818A3F18F48BE67E
:1006A00092E07BC0FB0183818F3F09F06BC08181A9
:1006B0008823D9F481E081838283DE0120E030E069
:1006C000F801E20FF31F808153968C9353972F5FAD
:1006D0003F4F11962930310599F78B8981508B8BCB
:1006E0001D8E81E08E8F1F8EA4C0813009F0A2C0C4
:1006F000FB0182818823B1F48BA1882361F4442318
:1007000021F419A28FE792E02FC0423079F549A376
:1007100080E992E017C0813049F5442311F142305D
:1007200029F519C0823029F58BA1882381F4423044
:1007300021F449A380E992E017C04423B9F419A237
:100740008FE792E00E943B0481EA92E00DC0813085
:1007500069F4423021F44AA38FEB92E005C04423B0
:1007600029F41AA28CEA92E00E943B048BA18F5FCD
:100770008BA389A18A8BF80192818881981709F04F
:1007800059C053C08130F1F5CE01F80141810E947A
:100790001703882329F482ED92E00E943B044AC0AB
:1007A000F0E1FF1679F0FF1520F08FE0F81681F4E4
:1007B00007C0E1E1FE1641F0F2E1FF1649F406C080
:1007C00088E005C089E003C08AE001C08BE0888B27
:1007D000D80140E050E007C0FE01E40FF51F149679
:1007E0008C91149780839A014F5F5F4F119688898F
:1007F00090E02817390784F31D8E1E8E1F8E81E02E
:1008000088A318C0FB018281813019F48CEF92E03B
:10081000C4CF882319F482E08A8B03C0823009F4A4
:100820001A8AF8018081815080831D8E1E8E81E09E
:100830008F8F18A2DF91CF911F910F91FF90089594
:100840001092C5008DE48093C40088E18093C100BC
:1008500086E08093C20008958091C00087FFFCCF9E
:100860008091C6000895982F8091C00085FFFCCF2D
:100870009093C6000895FC0107C08091C00085FFD9
:10088000FCCF9093C600319690819923B1F70895DB
:10089000FC0140E024813581868197812817390742
:1008A00009F441E0842F089520E0FC0184819581C2
:1008B000892B09F421E0822F08950F931F93DF9372
:1008C000CF9300D000D000D0CDB7DEB78C01298304
:1008D0003A834B835C836D837E83DC0116966D9136
:1008E0007C91179714968D919C9115978617970771
:1008F00039F112968D919C91139701960E94FD11EA
:100900009C01F80193838283880F991F820F931FA4
:10091000880F991F0084F185E02DE80FF91FDE0193
:10092000119686E00D9001928150E1F7D80114965E
:100930008D919C911597019615969C938E93149783
:1009400026960FB6F894DEBF0FBECDBFCF91DF91D4
:100950001F910F910895DF93CF93CDB7DEB72C97FA
:100960000FB6F894DEBF0FBECDBF9C01DC014D91E8
:100970005C911197CA01880F991F840F951F880FEA
:10098000991F1896ED91FC911997DE011196E80FC9
:10099000F91F86E001900D928150E1F7F90166811F
:1009A0007781CA0101960E94FD1191838083848121
:1009B0009581019795838483DE011796FE01319618
:1009C00086E001900D928150E1F72F8138854985AD
:1009D0005A856B857C8590E02C960FB6F894DEBF27
:1009E0000FBECDBFCF91DF9108958091B5038823CD
:1009F00011F481E001C08F5F8093B5030895809169
:100A0000B603882311F481E001C08F5F8093B603A1
:100A10000895809129058F5F80932905089510928C
:100A2000290508950F931F938C01FC01808191810A
:100A30000E941113C8010E9411131F910F91089574
:100A40001F920F920FB60F9211242F933F934F9343
:100A50005F936F937F938F939F93AF93BF93EF9326
:100A6000FF9380912A058F5F80932A058E3249F487
:100A700080912905853028F481E080932805109223
:100A80002A0580912905853060F082E193E00E947B
:100A90003B040E9427081092290510922A05109203
:100AA0002805FF91EF91BF91AF919F918F917F9119
:100AB0006F915F914F913F912F910F900FBE0F90CB
:100AC0001F901895EF92FF920F931F937C018B015B
:100AD000CB01880F991F860F971F880F991F0E94BF
:100AE0006412F701808791870150104013830283BD
:100AF0000F5F1F4F178306831182108215821482A5
:100B0000C7011F910F91FF90EF9008956F927F9210
:100B10008F929F92AF92BF92CF92DF92EF92FF920D
:100B20000F931F93DF93CF9300D000D00F92CDB7D8
:100B3000DEB7682E7B018A015901DB011296DC9039
:100B40001297ED91FC918481F9018283DA01159667
:100B50001C92DB01ED91FC918181882309F440C056
:100B60008DE393E00E943B04D701ED91FC9121813C
:100B7000332727FD30958091B50390E0281739077A
:100B800009F00FC12D2D2250DF0190E040E050E030
:100B900004C08D91480F511D9F5F9217D0F3ED0D4A
:100BA000F11D3297CA0154E0969587955A95E1F761
:100BB00020813296281709F0F4C03197808184177C
:100BC00009F0EFC00E942708109228058091B50314
:100BD000882311F481E001C08F5F8093B503E1C0E9
:100BE00087E593E00E943B044EEF742E7D0CF701E5
:100BF000A081B181FD0190E060E070E004C08191CE
:100C0000680F711D9F5F9715D0F34D2D50E03EEF9B
:100C1000832E3FEF932E840E951EFD01E80DF91DE6
:100C2000CB0124E0969587952A95E1F72081281736
:100C300009F0B7C06A010894C108D108AC0DBD1D08
:100C40008C91861709F0ADC0CA010E946412FC01A4
:100C5000D80111969C938E938091B60380830D905A
:100C6000BC91A02DF70180819181FC0180811196BA
:100C70008C93F801A081B181F70180819181FC0101
:100C8000838112968C93F801A081B181F701808154
:100C90009181FC01828113968C93F801A081B1812E
:100CA000F70180819181FC01848114968C93D70196
:100CB00012968C91F801828390E016C0A92FB0E0C3
:100CC0009D012B5F3F4FAA0DBB1DF7014081518154
:100CD000420F531FFA0180818C93D801ED91FC9152
:100CE000E20FF31F10829F5FF5018281981730F3A6
:100CF000D801ED91FC91DF0190E020E030E004C0EC
:100D00008D91280F311D9F5F9715D0F3E80DF91DC8
:100D1000C901A4E096958795AA95E1F78083D8014B
:100D2000ED91FC911197EC0DFD1D208313966C92B3
:100D3000139781E014968C93149715968C93FF2447
:100D40005E010894A11CB11C24C082E793E00E94BC
:100D50003B048F2D90E0B5014AE050E00E947013F3
:100D60000E943B0486E893E00E943B04D801ED9189
:100D7000FC91EF0DF11D808190E0B5014AE050E05B
:100D80000E9470130E943B048BE893E00E943B0496
:100D9000F394F8018281F816C0F28BE893E00E9488
:100DA0003B040F900F900F900F900F90CF91DF9119
:100DB0001F910F91FF90EF90DF90CF90BF90AF9079
:100DC0009F908F907F906F9008959F92AF92BF9267
:100DD000CF92DF92EF92FF920F931F93DF93CF9307
:100DE000CDB7DEB76B970FB6F894DEBF0FBECDBFA1
:100DF0000A8BE12E1B8BF22E2C8B3D8B4E8B5F8B47
:100E0000688F798F8A8F9B8FB62E932E062F10E0D6
:100E1000C80107960E946412582F692FC82ED92E38
:100E20008091B503F60180831182E282F382B4825D
:100E300095E00C5F1F4F9E012F5E3F4F08C0F601EB
:100E4000EA0FFB1FA20FB31F8C9180839F5FA92F16
:100E5000B0E00A171B079CF74B2D4B5F852F962F91
:100E60009C017901F90190E020E030E004C081911B
:100E7000280F311D9F5F9417D0F3F601EB0DF11D84
:100E8000C90164E0969587956A95E1F78583268385
:100E90000B2D095F10E05E010894A11CB11C21C05C
:100EA0008EE893E00E943B04812F90E0B5014AE078
:100EB00050E00E9470130E943B0486E893E00E9479
:100EC0003B04F70181917F0190E0B5014AE050E0D9
:100ED0000E9470130E943B048BE893E00E943B0445
:100EE0001F5F1017E8F28FE993E00E943B04892D01
:100EF00090E0B5014AE050E00E9470130E943B046C
:100F00008BE893E00E943B04DF82CE8208879986BB
:100F1000DE011C96FE01369686E001900D9281500E
:100F2000E1F72C853D854E855F856889798990E05C
:100F30006B960FB6F894DEBF0FBECDBFCF91DF9199
:100F40001F910F91FF90EF90DF90CF90BF90AF90E7
:100F50009F90089580E480937C00EAE7F0E0808130
:100F6000866080838081806880830895DF93CF933B
:100F700000D00F92CDB7DEB780917A008064809365
:100F80007A0080917A0086FDFCCF80917800909164
:100F90007900692F782F82E090E00F900F900F90EA
:100FA000CF91DF910895559AE0E8F0E08081806864
:100FB000808380818B608083E1E8F0E080818260C3
:100FC00080830895DF93CF9300D00F92CDB7DEB723
:100FD000962F80E0272F30E0822B932B909389006F
:100FE000809388000F900F900F90CF91DF9108951C
:100FF0008130910551F08230910571F0892B91F487
:10100000E89A80916900836004C0E99A8091690040
:101010008C60809369000895EA9A809169008063EA
:10102000809369000895E0EBF0E08081806C80831C
:10103000E1EBF0E08081876880838FEF8093B300DD
:101040000895E0E7F0E08081826080830895E0E722
:10105000F0E080818D7F8083089580917000811100
:1010600081E008950E94200478941AB88BB18C60B6
:101070008BB980E090E00E94F80781E090E00E9448
:10108000F80780E480937C00EAE7F0E080818660E6
:1010900080838081806880830E94D307E0EBF0E04A
:1010A0008081806C8083E1EBF0E0808187688083C1
:1010B0008FEF8093B3000895EF92FF920F931F93E9
:1010C000CF93DF937B01042F122FEC0170E060E0DF
:1010D000242F30E02150304029C0872F90E0821724
:1010E0009307B1F41123A1F090E0462F50E0E92FCF
:1010F000F0E0DE01AE0FBF1FEE0DFF1DE40FF51F88
:10110000808116968C939F5F191788F71D830BC0FB
:10111000D701A60FB11DFE0190E08D9186839F5FE0
:1011200031969830D1F77F5F6196685F7017A8F2AB
:10113000DF91CF911F910F91FF90EF9008954F9203
:101140005F926F927F928F929F92AF92BF92CF9257
:10115000DF92FF920F931F93DF93CF93CDB7DEB74C
:1011600061970FB6F894DEBF0FBECDBF5C018B0157
:10117000D42EDE011196EAEBF3E081E101900D92AD
:101180008150E1F7FF2401C0F394F501EF0DF11D4B
:1011900080818823C9F3AF0120E030E0BE016F5F9A
:1011A0007F4FD801A20FB31FFB01E20FF31F808115
:1011B000FA019191AF0189278C932F5F3F4F213125
:1011C000310579F741C05F5FF801E50FF11D8081BE
:1011D0008823C9F32F2D30E02F5E3F4F2C153D059E
:1011E00009F051E0952F652F70E00CC0E92FF0E079
:1011F000DF01A61BB70BA00FB11FE00FF11F80810D
:101200008C939F5F913190F3D501A20FB31F952F5F
:1012100008C0F201E91BF109E00FF11F8D918083F5
:1012200091509923B1F7D801F3018C9191918927BD
:101230008D93E815F905C9F7F50E8F2D90E04196CD
:101240008C159D057CF010C0CD2CDD2491E1492E3C
:10125000512C3E010894611C711C82E1882E912C56
:101260008C0E9D1E50E0B0CF61960FB6F894DEBF95
:101270000FBECDBFCF91DF911F910F91FF90DF90F7
:10128000CF90BF90AF909F908F907F906F905F9026
:101290004F9008959C0101C06F5FF901E60FF11DA9
:1012A00080818823C9F3862F08950F931F93CF93CE
:1012B000DF93122FFB01208321E1429FD0011124F3
:1012C000A80FB91F11968C911197818312968C915A
:1012D0001297828313968C911397838314968C9123
:1012E0001497848315968C911597858396E007C093
:1012F000C60FD71FFD01E20FF11D86818883292FBC
:10130000265015968C911597C92FD0E09F5F28170E
:1013100078F3C60FD71F1E968C911E978883FB010A
:10132000E90FF11D1F968C918083892F8F5FFB0140
:10133000E80FF11D1083582F41E019C0DB01A20F07
:10134000B31F8C91811711F0801781F4952F9F5F47
:10135000292F07C0FB01E20FF11D82913196808396
:1013600021504217B8F30C934F5F592F4F5F242F32
:1013700030E0852F90E0019728173907FCF2DF91C4
:10138000CF911F910F9108950F931F93CF93DF93E8
:101390008C0120E031E11BC0A92FB0E0E981F0E031
:1013A00083E0EE0FFF1F8A95E1F7EA0FFB1FE60FC0
:1013B000F71FAC0FBD1F16968C918083FA018081B8
:1013C0008F5F80839F5F8D81981730F32F5FF801C7
:1013D0008281281738F4239FE0011124C00FD11F08
:1013E00090E0F1CFDF91CF911F910F910895AC0163
:1013F00030E015C0FA01E30FF11D80818D3711F443
:1014000010820CC08E3751F4232FFA01E20FF11D28
:10141000818180832F5F2617C0F361503F5F3617AD
:1014200048F308951F93982F92959F70182F1F705F
:101430009A3018F4892F805D02C0892F895C0E9440
:1014400033041A3018F4812F805D02C0812F895C2B
:101450000E9433041F9108950F931F93CF93DF933E
:10146000EC01062F87EB93E00E943B0481E1089F8B
:1014700080011124C00FD11F88810E94120A898126
:101480000E94120A8A810E94120A8B810E94120A0B
:101490008C810E94120A8D810E94120A00E007C00E
:1014A000FE01E00FF11D86810E94120A0F5F8D81FF
:1014B0000817B0F38E850E94120A8F850E94120AC7
:1014C00088890E94120A87EB93E00E943B04DF9117
:1014D000CF911F910F910895BF92CF92DF92EF921B
:1014E000FF920F931F93CF93DF936C01C60ED11C15
:1014F000BB24C7E0D0E0F6018081813001F5BE0158
:10150000882777FD8095982F0E94560F9B01AC018C
:1015100060E070E080E090E40E9491137B018C0118
:101520006B2D70E0882777FD8095982F0E94560FCD
:10153000A80197010E94F90E0E94500DB62E089442
:10154000C11CD11C209711F02197D5CF8B2DDF9195
:10155000CF911F910F91FF90EF90DF90CF90BF90B0
:101560000895AF92BF92CF92DF92EF92FF920F93C6
:101570001F93CF93DF93B82EEB01C40FD11D97E0DB
:10158000C92ED12CAA24A394B601882777FD809573
:10159000982F0E94560F9B01AC0160E070E080E044
:1015A00090E40E9491137B018C016B2D70E08827E1
:1015B00077FD8095982F0E94560FA80197010E94F1
:1015C000C80E7B018C010E94B40F77FD06C0A88273
:1015D000C801B7010E94500DB62E0894C108D10869
:1015E00021968FEFC8168FEFD80671F6DF91CF9155
:1015F0001F910F91FF90EF90DF90CF90BF90AF9031
:101600000895AF92BF92CF92DF92EF92FF920F9325
:101610001F93CF93DF937C015B01042FC22E89E7D8
:1016200090E061E070E00E944812EC0181E1089FC7
:1016300080011124E00EF11EF7018181BE0140E01E
:101640000E94B10AF7018281BE0148E00E94B10AFE
:10165000F7018381BE0140E10E94B10AF701848154
:10166000BE0148E10E94B10AF7018581BE0140E256
:101670000E94B10A00E010E20AC01D2DF701E00F40
:10168000F11D8681BE014D2D0E94B10A0F5FF70149
:10169000858128E0D22ED10E081778F38685BE0109
:1016A0004D2D0E94B10A1D2D185FF7018785BE01DF
:1016B000412F0E94B10A185FCE01B501412F0E944F
:1016C0009F08F1E0CF1689F44D2D21E00CC0D50123
:1016D000A20FB11DFE01E40FF11D8C9190818927AD
:1016E0008C932F5F4F5F141790F7CE010E94111358
:1016F000DF91CF911F910F91FF90EF90DF90CF90EE
:10170000BF90AF9008957F928F929F92AF92BF92B9
:10171000CF92DF92EF92FF920F931F93CF93DF93BD
:101720005C018B01742ED22E81E190E061E070E0CB
:101730000E944812F82EE92EF80180818D3709F0B9
:101740007BC061E0F801E60FF11DE081EE3711F496
:101750006E5FF8CF6F5FED37A9F7C8014DE72EE751
:101760000E94F709F8018381D81621F0FFEFDF16F8
:1017700009F062C081E1789EE0011124CA0DDB1DF1
:10178000F8018181898382818A8383818B8384812B
:101790008C8335E0C32ED12CC00ED11E85818D8364
:1017A00090E00BC0E92FF0E0DE01AE0FBF1FE00FAD
:1017B000F11F868116968C939F5FF60180819817A2
:1017C00088F34701F801E80FF11D86818E87F80143
:1017D0008581080F111DF80187818F87C5016F2D45
:1017E0007E2D472D20E00E94010B8F2D9E2DFC01A8
:1017F00010E09F01205F3F4F8181813009F411E0AB
:101800003196E217F307C1F7892D982D0E94111325
:10181000113091F419821A821B821C821D8290E081
:1018200005C0FE01E90FF11D16829F5FF601808160
:101830009817B8F31E861F86DF91CF911F910F91E5
:10184000FF90EF90DF90CF90BF90AF909F908F90E0
:101850007F9008952F923F924F925F926F927F9266
:101860008F929F92AF92BF92CF92DF92EF92FF92B0
:101870000F931F93DF93CF930F92CDB7DEB71C0169
:101880002B013A014901580183E090E061E170E0E9
:101890000E9448128C018EE190E061E070E00E94AD
:1018A0004812C92EE82EF92E89838FEFF801838321
:1018B000DD2437C0FFE1DF9EA00111244A0D5B1D2E
:1018C000FA0180818F3F61F120E030E0F701E20F03
:1018D000F31FDA01A20FB31F8C9180832F5F3F4F5C
:1018E0002E31310599F7C80169817C2D4D2DF80104
:1018F00023810E94830B2D2D30E0F501868D90E031
:1019000001972817390761F4C801B201A3010E94A9
:10191000C409F8018381F101808381E0F4018083AF
:10192000D394F501868DD81628F2C8010E941113B0
:101930000F90CF91DF911F910F91FF90EF90DF906B
:10194000CF90BF90AF909F908F907F906F905F905F
:101950004F903F902F9008952F923F924F925F9219
:101960007F928F929F92AF92BF92CF92DF92EF922F
:10197000FF920F931F93CF93DF93082F7B01142FB8
:10198000190183E090E061E170E00E944812882E26
:10199000792E8EE190E061E070E00E944812A92E5D
:1019A000C82FD92F982E512F5770412F4695469505
:1019B0004695552311F4B42E02C0B42EB394882D4D
:1019C000972D9C016901F90180E021E098E009C0B0
:1019D0008183B2822383048395831786108A8F5F65
:1019E00071968B15A8F3882D972DB7014B2D252FB8
:1019F0000E945C08710110E042E2442E512C4C0E12
:101A00005D1E30C0882D972D692D7A2D412F21E044
:101A10000E94010B892D9A2D61E00E946C0AF6014B
:101A20008687892D9A2D69E00E946C0AF6018787C6
:101A3000882D972D692D7A2D412F2DE70EE70E94D5
:101A40005509FE01D70180818D931192E415F505AA
:101A5000D1F71F5F81E190E0C80ED91EEFE1F0E001
:101A6000EE0EFF1E1B1570F2F101B68E882D972D1C
:101A70000E941113892D9A2D0E941113DF91CF918D
:101A80001F910F91FF90EF90DF90CF90BF90AF909C
:101A90009F908F907F905F904F903F902F900895F0
:101AA000EF92FF920F931F937B018C0120E030E0B7
:101AB00040E05FE40E94260F88238CF0C801B70144
:101AC00020E030E040E05FE40E94C80E0E94B40FC6
:101AD0009B01AC01205030404040504806C0C80136
:101AE000B7010E94B40F9B01AC01B901CA011F915B
:101AF0000F91FF90EF900895A0E0B0E0E2E8FDE0E4
:101B00000C941112DC012B01FA019C91923008F423
:101B100039C1EB018881823008F433C1943069F413
:101B2000843009F02FC111969C91119789819817E3
:101B300009F428C1ABECB3E025C1843009F421C11C
:101B40008230A9F4923009F01DC19A01AD0188E0FC
:101B5000EA010990AE01E90109929E018150C1F7A5
:101B6000E201898111969C918923818308C1923079
:101B700009F407C112962D903C901397EB018A81CE
:101B80009B811496AD90BD90CD90DC901797EC8022
:101B9000FD800E811F819101281B390BB90137FF90
:101BA00004C066277727621B730B603271050CF047
:101BB00061C0121613066CF537014801062E04C0E9
:101BC00096948794779467940A94D2F721E030E052
:101BD00040E050E004C0220F331F441F551F6A9598
:101BE000D2F721503040404050402E213F21402329
:101BF0005123211531054105510521F021E030E047
:101C000040E050E079018A01E628F72808291929DF
:101C10003CC0232BD1F1260E371E35014601062E7E
:101C200004C096948794779467940A94D2F721E03D
:101C300030E040E050E004C0220F331F441F551F26
:101C40006A95D2F721503040404050402A213B2134
:101C50004C215D21211531054105510521F021E07F
:101C600030E040E050E059016A01A628B728C828B2
:101C7000D9280BC0821593052CF01C01AA24BB2483
:101C8000650103C0EE24FF24870111969C91D201C7
:101C900011968C91981709F445C0992339F0A80141
:101CA00097012A193B094C095D0906C0A601950157
:101CB0002E193F09400B510B57FD08C0118233828A
:101CC000228224833583468357831DC081E081832C
:101CD0003382228288279927DC01821B930BA40B75
:101CE000B50B84839583A683B7830DC0220F331F62
:101CF000441F551F248335834683578382819381F4
:101D00000197938382832481358146815781DA014B
:101D1000C9010197A109B1098F5F9F4FAF4FBF4321
:101D200028F30BC0918333822282EA0CFB1C0C1D2A
:101D30001D1DE482F5820683178383E0808324815E
:101D400035814681578157FF1AC0C901AA2797FDDF
:101D5000A095BA2F81709070A070B070569547957D
:101D600037952795822B932BA42BB52B84839583B2
:101D7000A683B78382819381019693838283DF0157
:101D800001C0D201CD01CDB7DEB7E2E10C942D1236
:101D9000A0E2B0E0EEECFEE00C941D1269837A83C1
:101DA0008B839C832D833E834F835887E9E0EE2EFF
:101DB000F12CEC0EFD1ECE010196B7010E942C11F4
:101DC0008E010F5E1F4FCE010596B8010E942C11A7
:101DD0008A8991E089278A8BC701B801AE01475EE5
:101DE0005F4F0E947C0D0E945710A096E6E00C9475
:101DF0003912A0E2B0E0EFEFFEE00C941D1269830F
:101E00007A838B839C832D833E834F835887F9E0AD
:101E1000EF2EF12CEC0EFD1ECE010196B7010E94B3
:101E20002C118E010F5E1F4FCE010596B8010E9446
:101E30002C11C701B801AE01475E5F4F0E947C0DB7
:101E40000E945710A096E6E00C943912A8E1B0E089
:101E5000ECE2FFE00C941D1269837A838B839C83F0
:101E60002D833E834F83588789E0E82EF12CEC0EBA
:101E7000FD1ECE010196B7010E942C118E010F5E4E
:101E80001F4FCE010596B8010E942C118985823022
:101E900040F08989823028F0C701B8010E94A4115E
:101EA00001C08FEF6896E6E00C943912A8E0B0E02C
:101EB000ECE5FFE00C941A129B01AC0183E08983EE
:101EC000DA01C9018827B7FD83959927AA27BB277F
:101ED000B82E211531054105510519F482E0898399
:101EE0003AC08823A9F0203080E0380780E0480716
:101EF00080E8580729F460E070E080E09FEC30C093
:101F0000EE24FF248701E21AF30A040B150B02C02A
:101F100079018A018EE1C82ED12CDC82CB82ED8240
:101F2000FE820F831887C801B7010E94081001972D
:101F30001816190684F4082E04C0EE0CFF1C001FAE
:101F4000111F0A94D2F7ED82FE820F831887C81AF8
:101F5000D90ADC82CB82BA82CE0101960E94571048
:101F60002896E9E00C943612ACE0B0E0EAEBFFE032
:101F70000C94211269837A838B839C83CE01019612
:101F8000BE016B5F7F4F0E942C118D81823061F109
:101F9000823050F1843021F48E81882351F12EC09B
:101FA0002F81388537FD20C06E812F3131051CF01F
:101FB0006623F9F023C08EE190E0821B930B298504
:101FC0003A854B855C8504C056954795379527958E
:101FD0008A95D2F76623B1F05095409530952195BA
:101FE0003F4F4F4F5F4F0EC020E030E040E050E0E9
:101FF00009C02FEF3FEF4FEF5FE704C020E030E074
:1020000040E050E8B901CA012C96E2E00C943D1280
:10201000EF92FF920F931F937B018C0180E0E816F3
:1020200080E0F80681E0080780E0180788F48FEF69
:10203000E816F1040105110531F028F088E090E080
:10204000A0E0B0E017C080E090E0A0E0B0E012C0F7
:1020500080E0E81680E0F80680E0080781E01807D5
:1020600028F088E190E0A0E0B0E004C080E190E0DA
:10207000A0E0B0E020E230E040E050E0281B390B67
:102080004A0B5B0B04C016950795F794E7948A9565
:10209000D2F7F701ED52FC4F8081281B310941092D
:1020A0005109C9011F910F91FF90EF900895DF92A0
:1020B000EF92FF920F931F93FC01E480F58006815D
:1020C0001781D1808081823048F480E090E0A0E1E7
:1020D000B0E0E82AF92A0A2B1B2BA5C0843009F4AA
:1020E0009FC0823021F4EE24FF24870105C0E11453
:1020F000F1040105110519F4E0E0F0E096C06281F9
:1021000073819FEF623879070CF05BC022E83FEFE4
:10211000261B370B2A3131052CF020E030E040E05F
:1021200050E02AC0B801A701022E04C07695679539
:10213000579547950A94D2F781E090E0A0E0B0E08F
:1021400004C0880F991FAA1FBB1F2A95D2F70197B9
:10215000A109B1098E219F21A023B1230097A105D8
:10216000B10521F081E090E0A0E0B0E09A01AB0180
:10217000282B392B4A2B5B2BDA01C9018F77907002
:10218000A070B07080349105A105B10539F427FF26
:1021900009C0205C3F4F4F4F5F4F04C0215C3F4F51
:1021A0004F4F5F4FE0E0F0E02030A0E03A07A0E0C2
:1021B0004A07A0E45A0710F0E1E0F0E079018A0153
:1021C00027C06038710564F5FB01E158FF4FD80165
:1021D000C7018F779070A070B07080349105A10511
:1021E000B10539F4E7FE0DC080E490E0A0E0B0E076
:1021F00004C08FE390E0A0E0B0E0E80EF91E0A1FF3
:102200001B1F17FF05C016950795F794E7943196A5
:1022100087E016950795F794E7948A95D1F705C05E
:10222000EE24FF248701EFEFF0E06E2F679566271D
:102230006795902F9F77D794DD24D7948E2F86951E
:10224000492F462B582F5D29B701CA011F910F91C5
:10225000FF90EF90DF900895FC01DB0140815181F8
:102260002281622F6F7770E0221F2227221F938125
:10227000892F880F822B282F30E0991F9927991FCB
:1022800011969C93119721153105A9F5411551051A
:102290006105710511F482E037C082E89FEF139663
:1022A0009C938E9312979A01AB0167E0220F331F24
:1022B000441F551F6A95D1F783E08C930DC0220F00
:1022C000331F441F551F12968D919C9113970197B0
:1022D00013969C938E931297203080E0380780E00D
:1022E000480780E4580758F314962D933D934D9377
:1022F0005C93179708952F3F310579F441155105E7
:102300006105710519F484E08C93089564FF03C09E
:1023100081E08C9312C01C9210C02F57304013964E
:102320003C932E93129783E08C9387E0440F551FC4
:10233000661F771F8A95D1F7706414964D935D934D
:102340006D937C93179708951F93DC01FB019C917B
:10235000923008F447C08081823008F443C0943042
:1023600051F411961C91843099F58181682F70E0A9
:10237000611B71093FC0843021F0923031F482300A
:10238000B9F18181882389F12DC011961C91119793
:102390008230F1F081811817D9F412962D913C9179
:1023A0001397828193818217930794F02817390736
:1023B000BCF014968D919D910D90BC91A02D24811F
:1023C000358146815781281739074A075B0718F47A
:1023D000112341F00AC082179307A407B50740F400
:1023E000112319F061E070E005C06FEF7FEF02C0CC
:1023F00060E070E0CB011F910895AA1BBB1B51E167
:1024000007C0AA1FBB1FA617B70710F0A61BB70B64
:10241000881F991F5A95A9F780959095BC01CD0109
:1024200008952F923F924F925F926F927F928F9278
:102430009F92AF92BF92CF92DF92EF92FF920F9353
:102440001F93CF93DF93CDB7DEB7CA1BDB0B0FB65D
:10245000F894DEBF0FBECDBF09942A88398848881A
:102460005F846E847D848C849B84AA84B984C884B0
:10247000DF80EE80FD800C811B81AA81B981CE0FA7
:10248000D11D0FB6F894DEBF0FBECDBFED0108958C
:102490000F931F93CF93DF93689F8001699F100D67
:1024A000789F100D1124C8010E946412EC0100975E
:1024B00029F060E070E0A8010E946913CE01DF916D
:1024C000CF911F910F910895CF93DF93BC0182307C
:1024D000910510F462E070E0A0912D05B0912E05F9
:1024E000ED01E0E0F0E040E050E021C0888199811A
:1024F0008617970769F48A819B81309719F0938337
:10250000828304C090932E0580932D05FE0134C074
:102510006817790738F44115510519F084179507A4
:1025200008F4AC01FE018A819B819C01E90120979E
:10253000E9F641155105A9F1CA01861B970B0497CD
:1025400008F4BA01E0E0F0E02AC08D919C91119767
:1025500084179507F9F46417750781F412968D9125
:102560009C911397309719F09383828304C09093C2
:102570002E0580932D05FD0132964FC0CA01861BA2
:10258000970BFD01E80FF91F6193719302978D93EB
:102590009C9343C0FD01828193819C01D9011097D6
:1025A000A1F680912B0590912C05892B41F4809107
:1025B000D5049091D60490932C0580932B054091DF
:1025C000D7045091D8044115510541F44DB75EB779
:1025D0008091D3049091D404481B590B20912B0572
:1025E00030912C0524173507B0F4CA01821B930BD8
:1025F0008617970780F0AB014E5F5F4F84179507F2
:1026000050F0420F531F50932C0540932B05F901B6
:102610006193719302C0E0E0F0E0CF01DF91CF91D0
:102620000895CF93DF93009709F450C0EC012297EF
:102630001B821A82A0912D05B0912E05109709F1E9
:1026400040E050E0AC17BD0708F1BB83AA83FE0150
:1026500021913191E20FF31FAE17BF0779F48D91ED
:102660009C911197280F391F2E5F3F4F3983288384
:1026700012968D919C9113979B838A8341155105E6
:1026800071F4D0932E05C0932D0520C012968D9124
:102690009C911397AD01009711F0DC01D3CFFA01A3
:1026A000D383C28321913191E20FF31FCE17DF074D
:1026B00069F488819981280F391F2E5F3F4FFA01F5
:1026C000318320838A819B8193838283DF91CF91A1
:1026D0000895DC0101C06D9341505040E0F708952A
:1026E000FB019F01E8944230C4F04532B4F44A3013
:1026F00029F497FB1EF4909581959F4F642F7727BF
:102700000E94FD11805D8A330CF0895D8193CB01BD
:102710000097A1F716F45DE251931082C9010C9461
:10272000DD13FA01EE0FFF1F30962105310599F1F7
:102730006115710561F48038BFE39B0749F1689426
:102740009038810561F08038BFEF9B0741F09923F5
:1027500042F5FF3FE1053105210511F1E8940894A8
:10276000E795D901AA2329F4AB2FBE2FF85FD0F348
:1027700010C0FF5F70F4A695E0F7F73950F019F03C
:10278000FF3A38F49F779F930CD00F9007FC905836
:1027900008953EF059C060E070E080E89FE308953E
:1027A0004FE79F775F934F933F932F93E0D02F9105
:1027B0003F914F915F914ED115C0DC01FC01672F15
:1027C00071917723E1F7329704C07C916D93708308
:1027D0006291AE17BF07C8F3089519F40EF02EC02A
:1027E0007DC032C061D0C8F39638C0F707F80F92A9
:1027F000E8942BE33AEA48EB5FE73AD10F920F9265
:102800000F924DB75EB70F92F2D0ECE7F0E01FD019
:102810004F915F91EF91FF91E595EE1FFF1F49F0FA
:10282000FE57E0684427EE0F441FFA95E1F7419503
:10283000550B64D00F9007FE58C0089597F99F6715
:1028400080E870E060E008959FEF80EC0895DF93EA
:10285000CF931F930F93FF92EF92DF927B018C0136
:10286000689405C0DA2EEF0101D1FE01E894A5912C
:102870002591359145915591AEF3EF015BD1FE0164
:102880009701A801DA9479F7DF90EF90FF900F910C
:102890001F91CF91DF91089557FD9058440F551F18
:1028A00059F05F3F71F04795880F97FB991F61F0D2
:1028B0009F3F79F087950895121613061406551F49
:1028C000F2CF4695F1DF08C0161617061806991FB5
:1028D000F1CF86957105610508940895E894BB27AA
:1028E00066277727CB0197F908959B01AC0160E03B
:1028F00070E080E89FE371C1A1CFD7C1D5DFE8F3D5
:102900009923D9F3940F511DBBF39150504094F08B
:1029100059F0882332F0660F771F881F915050407E
:10292000C1F79E3F510544F7880F911D96958795F5
:1029300097F908955F3FACF0983E9CF0BB278695D1
:1029400077956795B79508F4B1609395C1F7BB0F7C
:1029500058F711F460FFE8CF6F5F7F4F8F4F9F4FA5
:10296000E3CFBDCF0EF0A1C16FCF689467CF9CDFDE
:10297000C8F39923D1F3C6F3DF93CF931F930F933B
:10298000FF92C92FDD2788232AF02197660F771F32
:10299000881FDAF720E030E040E85FEB9FE38839FA
:1029A00020F0803E30F021968F7723DAE4EAF0E0E1
:1029B00003C01FDAE1EDF0E04ADF8B01BE01EC015C
:1029C000FB2E6F5771097595771F880B990B6EDA7F
:1029D00028E132E741E35FE349D0AF2D9801AE0132
:1029E000FF900F911F91CF91DF91A4D07AC1FA018E
:1029F000DC01AA0FBB1F9B01AC01BF5728F42227A3
:102A00003327442750781FC0B75188F4AB2F0024D8
:102A1000469537952795011CA395D2F3002069F0C0
:102A2000220F331F441FB395DAF30DD0B1C96130C3
:102A30007105A0E88A07B94630F49B01AC0166270E
:102A4000772788279078309621F02083318342833E
:102A5000538308950BD045C136D128F03BD118F0EF
:102A6000952309F0EBCEF0CE112439CF15DFA0F37A
:102A7000959FD1F3950F50E0551F629FF001729F13
:102A8000BB27F00DB11D639FAA27F00DB11DAA1F32
:102A9000649F6627B00DA11D661F829F2227B00D7F
:102AA000A11D621F739FB00DA11D621F839FA00D0A
:102AB000611D221F749F3327A00D611D231F849F5A
:102AC000600D211D822F762F6A2F11249F575040B1
:102AD0008AF0E1F088234AF0EE0FFF1FBB1F661F4C
:102AE000771F881F91505040A9F79E3F510570F005
:102AF000A5CEF5CE5F3FECF3983EDCF38695779557
:102B00006795B795F795E7959F5FC1F7FE2B880FFF
:102B1000911D9695879597F90895D5D030F0DAD024
:102B200020F031F49F3F11F41EF48ECE0EF4E095A8
:102B3000E7FB84CEE92FB0DE80F3BA176207730794
:102B40008407950718F071F49EF5C8CE0EF4E09551
:102B50000B2EBA2FA02D0B01B90190010C01CA0157
:102B6000A0011124FF27591B99F0593F50F4503E02
:102B700068F11A16F040A22F232F342F4427585FF4
:102B8000F3CF469537952795A795F0405395C9F70C
:102B90007EF41F16BA0B620B730B840BBAF09150C4
:102BA000A1F0FF0FBB1F661F771F881FC2F70EC063
:102BB000BA0F621F731F841F48F487957795679536
:102BC000B795F7959E3F08F0B3CF9395880F08F01F
:102BD0009927EE0F9795879508950CD082C07AD0EB
:102BE00040F071D030F021F45F3F19F027CE511141
:102BF00076CE2ACE51DE98F39923C9F35523B1F34B
:102C0000951B550BBB27AA2762177307840738F05B
:102C10009F5F5F4F220F331F441FAA1FA9F333D0BA
:102C20000E2E3AF0E0E830D091505040E695001C6E
:102C3000CAF729D0FE2F27D0660F771F881FBB1F2A
:102C4000261737074807AB07B0E809F0BB0B802D04
:102C5000BF01FF2793585F4F2AF09E3F510568F050
:102C6000EDCD3DCE5F3FECF3983EDCF38695779556
:102C70006795B795F7959F5FC9F7880F911D969552
:102C8000879597F90895E1E0660F771F881FBB1FAE
:102C9000621773078407BA0720F0621B730B840B5B
:102CA000BA0BEE1F88F7E09508959F3F31F09150E1
:102CB00020F4879577956795B795880F911D969520
:102CC000879597F9089500240A9416161706180692
:102CD0000906089500240A94121613061406050620
:102CE0000895092E0394000C11F4882352F0BB0FB1
:102CF00040F4BF2B11F460FF04C06F5F7F4F8F4F14
:082D00009F4F0895F894FFCFE6
:102D08000A0D496E6974696174696E670D0A0D0A66
:102D18000D0A000A0D41505020203A20202042552B
:102D280054544F4E20505245535345440A0D000AFF
:102D38000D41505020203A20202055504441544500
:102D4800204C45440A0D000A0D5452414E533A2076
:102D580020205452414E534D49540A0D000A0D5437
:102D680052414E533A20202052452D5452414E5341
:102D78004D49540A0D000A0D5452414E533A202031
:102D88002053454E442041434B0A0D000A0D4E4541
:102D98005420203A20202042524F4144434153546A
:102DA800494E470A0D000A0D4E455420203A20206E
:102DB80020524542524F414443415354494E470DD6
:102DC8000A000A0D4E455420203A20202053454E33
:102DD80044494E4720444154410D0A000A0D4E45CE
:102DE8005420203A202020524543454956494E4711
:102DF80000FF0001020201010000FF00010209FFBB
:102E080000010202010100000000FF0003FF0200B0
:102E1800000000FE0102FF0200000000FE0103FFA7
:102E28000200000000FF00020309FF000102020186
:102E38000100000000FE00020109FF00010202017A
:102E480001000000000A0A0D202020202020202058
:102E5800202020204E455420434845434B53554D90
:102E6800205041535345440A0A0D000A0D484F505B
:102E7800204C494D49542052454143484544000A95
:102E88000D666972737420706C6163653A20300056
:102E98000A0D666972737420706C6163653A20323A
:102EA800000A0D77696C6C20686F70000A0D7365F5
:102EB800636F6E6420706C6163653A20300A000AA3
:102EC8000D7365636F6E6420706C6163653A2032C0
:102ED8000A000A0A0D20202020202020202020443B
:102EE80041544120434F52525550544544202D2DB2
:102EF80020444953434152440A0A0D000A0A0D531B
:102F0800484F554C44204E4F542042452048455286
:102F180045000D0A476976696E67207570207265ED
:102F280073656E64696E6720746865206D65737378
:102F3800616765206E6F772E2E2E0D0A000A0D54DC
:102F480052414E533A202020524543454956454464
:102F58002041434B0A0D000A0D5452414E533A206A
:102F680020205041434B4147494E472041434B0A9B
:102F78000D00544C2072656365697665207365673A
:102F88006D656E742000203A2020000D0A00544C14
:102F98002073656E64207365676D656E74200044E8
:102FA800657374696E6174696F6E204465766963D0
:102FB80065203A200001010D0A000001010101010C
:102FC80001010101010101000000010000000000F1
:102FD80000000000010202030303030404040404C4
:102FE800040404050505050505050505050505058C
:102FF800050505060606060606060606060606066C
:103008000606060606060606060606060606060658
:10301800060606070707070707070707070707073B
:103028000707070707070707070707070707070728
:103038000707070707070707070707070707070718
:103048000707070707070707070707070707070708
:1030580007070708080808080808080808080808EB
:1030680008080808080808080808080808080808D8
:1030780008080808080808080808080808080808C8
:1030880008080808080808080808080808080808B8
:1030980008080808080808080808080808080808A8
:1030A8000808080808080808080808080808080898
:1030B8000808080808080808080808080808080888
:1030C8000808080808080808080808080808080878
:0A30D80008080820002F0500000082
:00000001FF
