:100000000C943E000C945B000C945B000C945B0021
:100010000C945B000C945B000C945B000C945B00F4
:100020000C945B000C945B000C945B000C945B00E4
:100030000C945B000C945B000C945B000C945B00D4
:100040000C945B000C945B000C945B000C945B00C4
:100050000C945B000C945B000C945B000C945B00B4
:100060000C945B000C945B000C945B000C945B00A4
:100070000C945B000C945B000C945B0011241FBE7D
:10008000CFEFD0E1DEBFCDBF12E0A0E0B1E0EEE205
:10009000F6E002C005900D92AE35B107D9F713E036
:1000A000AEE5B2E001C01D92A637B107E1F70E94AC
:1000B0005D000C9415030C940000CF93DF930E9415
:1000C000ED0280E091E00E9408038EE592E065E693
:1000D00071E049E022E00E9425018091E502882339
:1000E00021F18AE091E00E9408038091DB028F3FBA
:1000F000E1F48091DC028823C1F48091DD0281303B
:10010000A1F48091DE028F3F81F482E08093DF02D0
:100110008091E002882371F18091E102882351F1FE
:1001200004C08091E302882349F18AE191E00E94B2
:100130000803C0E0D0E0FE01E451FD4FDE01A2590A
:10014000BE4F90818C91981721F48AE291E00E9431
:1001500008032196CF30D10571F78091FB028130E1
:1001600019F487E391E0AFCF882309F0AECF89E49B
:1001700091E0A9CF8091E202882399F68BE591E086
:100180000E940803D2CF1F93CF93DF93DC01162F79
:100190004423E1F420E090E070E06A5F7F4F08C004
:1001A000EA0FFB1FE257FF4F808180FD9F5F2F5FAB
:1001B000E22FF0E06E177F079CF790FF42C0A60F7A
:1001C000B71FA257BF4F81E08C933BC04230C9F5A7
:1001D00030E020E0E0E0F0E0BC0162577F4F28C053
:1001E000888190E00E2E02C0880F991F0A94E2F7D2
:1001F00080FD2F5F4430510589F4309731F420FDA4
:1002000002C030E00AC031E008C0832F880F20FF11
:1002100003C0382F3F5F01C0382F20E04F5F5F4F92
:10022000219645305105E1F63196E830F10521F08F
:10023000EB0140E050E0D4CFA10FB11DAC56BF4F51
:100240003C93DF91CF911F9108951F93CF93DF933C
:10025000EC01122FC357DF4F1882CD58D0404930E0
:1002600071F04A3018F44830C1F405C04A3059F0F2
:100270004B3099F40CC0CA57DF4F8FE00BC0CA5700
:10028000DF4F80E107C0CA57DF4F81E103C0CA5783
:10029000DF4F82E18883C658D040C358DF4F8FEFCD
:1002A0008993199221E02993899392E09993199265
:1002B0001992199218822996899319922993199360
:1002C0004883C259D040DE01AD56BF4F20E030E038
:1002D00007C0FB01E20FF31F80818D932F5F3F4F1B
:1002E0002417B8F3FE01E40FF11DED56FF4F1192F4
:1002F0001082CE01642F40E00E94C3001883C957CA
:10030000DF4F81E08993199219921882DF91CF9182
:100310001F910895DB01442371F4FB0130E090E06C
:1003200005C0808180FD9F5F3F5F31963217C8F323
:100330009095917029C0423031F530E060E090E056
:1003400016C0FD01E40FF51F808180FD6F5F9923CA
:1003500021F460FF04C031E002C060FD3F5F4F5FE9
:100360005F4F4530510569F79F5F983019F040E0C5
:1003700050E0E7CF90E0A20FB11D11978C91381794
:1003800019F491E001C00895892F0895EF92FF922A
:100390001F93CF93DF93EC017B01122FFB01808130
:1003A0008A3F18F489EB91E0B1C0FB0183818F3F54
:1003B00009F0A0C081818823F9F481E081838283E0
:1003C000DE01A358BF4F20E030E0F701E20FF31F3A
:1003D00080818D932F5F3F4F29303105B1F7FE01AA
:1003E000E358FF4F808181508083C957DF4F1992B6
:1003F00081E089931992EAC0813009F0E8C0FB01DD
:100400008281823041F5C357DF4F8881CD58D0407B
:100410008823A9F4423041F4C557DF4F4883CB58B5
:10042000D0408DEC91E04EC0433009F04DC0C5572F
:10043000DF4F4883CB58D0408EED91E028C081300B
:1004400009F042C0423021F4C457DF4F488336C020
:100450004330D1F525C08330E9F5C357DF4F88819C
:10046000CD58D0408823C1F4433041F4C557DF4F05
:100470004883CB58D0408EED91E024C0423021F526
:10048000C557DF4F4883CB58D0408DEC91E00E9498
:1004900008038FEE91E016C08130B1F4433041F48F
:1004A000C457DF4F4883CC58D0408DE092E00AC05B
:1004B000423051F4C457DF4F82E08883CC58D0409B
:1004C0008AEF91E00E940803FE01E357FF4F80810D
:1004D0008F5F8083FE01E458FF4FC557DF4F88814F
:1004E000CB58D0408083F70192818881981709F01A
:1004F0006EC066C0813009F04AC0CE01F70141816B
:100500000E948A01882329F480E292E00E94080375
:100510005EC0103171F0113118F41F30C1F405C004
:10052000113159F0123199F40CC0C658DF4F88E0F0
:100530000BC0C658DF4F89E007C0C658DF4F8AE0BE
:1005400003C0C658DF4F8BE08883CA57D040D7011D
:1005500040E050E0BE0166587F4F07C0FE01E40F47
:10056000F51F14968C91149780839A014F5F5F4F0B
:100570001196FB01808190E0281739077CF3C95759
:10058000DF4F19921992199281E0888320C0FB01F4
:100590008281813019F487E492E0B8CF823021F46F
:1005A000C458DF4F83E005C0833031F4C458DF4FB7
:1005B00082E08883CC57D040F701808181508083CE
:1005C000C957DF4F1992199281E089931882DF9100
:1005D000CF911F91FF90EF9008951092C5008DE488
:1005E0008093C40088E18093C10086E08093C200BC
:1005F00008958091C00087FFFCCF8091C6000895C8
:10060000982F8091C00085FFFCCF9093C60008957D
:10061000FC0107C08091C00085FFFCCF9093C6000D
:0E062000319690819923B1F70895F894FFCF99
:10062E00484545454545454559000A0A0D42524F34
:10063E00414443415354494E47000A0A0D44415424
:10064E00412053415645443A20000A0D434F554E22
:10065E00542048455245000A0D434845434B5355D7
:10066E004D203D2030783031000A0D434845434B34
:10067E0053554D203D2030783030000A0D434F52F7
:10068E005245435400FF0001020201010000FF0029
:10069E00010209FF00010202010100000000FF003B
:1006AE0002FF0200000000FE0103FF020000000036
:1006BE00FE0103FF0200000000FF00020309FF001D
:1006CE00010202010100000000FE00020109FF000C
:1006DE000102020101000000000A0D484F50204C9B
:1006EE00494D49542052454143484544000A0D6640
:1006FE006972737420706C6163653A2032000A0D62
:10070E00666972737420706C6163653A2033000AF7
:10071E000D77696C6C20686F70000A0D7365636FDE
:10072E006E6420706C6163653A20320A000A0D73A4
:10073E0065636F6E6420706C6163653A20330A00E6
:10074E000A0A0D2020202020202020202044415461
:10075E004120434F52525550544544202D2D204494
:10076E00495343415244000A0A0D53484F554C44D5
:0E077E00204E4F542042452048455245000071
:00000001FF
