:100000000C943E000C946D010C942F010C945B0039
:100010000C945B000C945B000C945B000C945B00F4
:100020000C945B000C9496030C945B000C945B00A6
:100030000C945B000C945B000C945B000C945B00D4
:100040000C945B000C945B000C945B000C945B00C4
:100050000C945B000C945B000C945B000C945B00B4
:100060000C945B000C945B000C945B000C945B00A4
:100070000C945B000C945B000C945B0011241FBE7D
:10008000CFEFD0E1DEBFCDBF12E0A0E0B1E0E2ED06
:10009000FFE002C005900D92A23EB107D9F713E030
:1000A000A2EEB2E001C01D92A433B107E1F70E94B5
:1000B0005D000C94E7070C9400005F926F927F92B2
:1000C0008F929F92AF92BF92CF92DF92EF92FF9268
:1000D0000F931F93DF93CF93CDB7DEB729970FB65A
:1000E000F894DEBF0FBECDBF0E946E0380E091E0AA
:1000F0000E9489030E9473061986188617EF812EC5
:1001000012E0912EB4E0AB2EB12CAC0EBD1E6E01F0
:100110000894C11CD11CAEEF5A2EF2E06F2E77244A
:1001200073940091E2020023D1F01091E302209138
:10013000E4023091E5024091E6025091E7026091BD
:10014000E8027091E9028091EA029091EB02E0EFFF
:10015000EE2EE2E0FE2E0E9433051092E202809124
:10016000F402882321F48091EC028823D1F08FE0FF
:1001700091E00E94890380917000826080937000FA
:100180006091F0027091F10286EF92E04091F202EC
:100190002091F3020E9405021092F4021092EC02E8
:1001A0000CC08985882349F06C817D8186EF92E0BF
:1001B0004E812F810E9405021986809113038823A6
:1001C000A9F081E391E00E948903109213035092F9
:1001D0001A0360921C0370921D0386EF92E06AE19D
:1001E00073E042E020E10E948E022CC08091140353
:1001F000882339F082E491E00E948903109214036D
:1002000021C080911503882339F085E591E00E9493
:1002100089031092150316C080911603882391F06C
:1002200086E691E00E9489039A8289828091060382
:100230008B8380E0B601A50129EE32E00E94D40351
:10024000109216038885882309F46BCF6091E90228
:100250007091EA028091EB020E94340662CF1F92F5
:100260000F920FB60F921124FF920F931F932F93AB
:100270003F934F935F936F937F938F939F93AF932E
:10028000BF93EF93FF9303EE12E0FF24F394F092F9
:10029000E30282E08093E4028093E5020D5F1F4F4A
:1002A0000E9408066093E602F80171838283F0924F
:1002B000E202FF91EF91BF91AF919F918F917F915A
:1002C0006F915F914F913F912F911F910F91FF90EF
:1002D0000F900FBE0F901F9018951F920F920FB6A0
:1002E0000F9211240F931F932F933F934F935F937C
:1002F0006F937F938F939F93AF93BF93EF93FF93EE
:1003000003EE12E01092E30282E08093E402109286
:10031000E5020D5F1F4F0E9408066093E602F80198
:100320007183828381E08093E202FF91EF91BF911C
:10033000AF919F918F917F916F915F914F913F917D
:100340002F911F910F910F900FBE0F901F90189536
:100350001F93CF93DF93EC01162F4423C9F420E0C1
:1003600090E0A62FB0E0169606C0EC0FFD1F84A10A
:1003700080FD9F5F2F5FE22FF0E0AE17BF07ACF765
:1003800090FF3FC0AC0FBD1F81E094968C9339C0A5
:100390004230B9F530E020E0E0E0F0E0BC016C5D17
:1003A0007F4F28C08C9190E00E2E02C0880F991FBD
:1003B0000A94E2F780FD2F5F4430510589F43097AD
:1003C00031F420FD02C030E00AC031E008C0832FC4
:1003D000880F20FF03C0382F3F5F01C0382F20E077
:1003E0004F5F5F4F119645305105E1F63196E83089
:1003F000F10521F0DB0140E050E0D4CFC10FD11D69
:100400003AA7DF91CF911F9108951F93CF93DF9368
:10041000EC01122F1BA2493061F04A3018F4483029
:1004200071F405C04A3039F04B3049F406C08FE012
:1004300005C080E103C081E101C082E18C8F8FEFB4
:100440008B8B1C8A21E02D8B8E8B92E09F8B188EDC
:10045000198E1A8E1B8E8CA31DA22EA31FA348A734
:10046000DE01999620E030E007C0FB01E20FF31FA8
:1004700080818D932F5F3F4F2417B8F3FE01E40F67
:10048000F11D11A612A6CE01642F40E00E94A80122
:10049000188381E08D8F1E8E1F8E18A2DF91CF9161
:1004A0001F910895DB01442371F4FB0130E090E0DB
:1004B00005C0808180FD9F5F3F5F31963217C8F392
:1004C0009095917029C0423031F530E060E090E0C5
:1004D00016C0FD01E40FF51F808180FD6F5F992339
:1004E00021F460FF04C031E002C060FD3F5F4F5F58
:1004F0005F4F4530510569F79F5F983019F040E034
:1005000050E0E7CF90E0A20FB11D11978C91381702
:1005100019F491E001C00895892F0895FF920F9377
:100520001F93CF93DF93EC018B01F22EFB018081AF
:100530008A3F18F486EC91E07EC0FB0183818F3FF7
:1005400009F06EC081818823D9F481E081838283A0
:10055000DE0120E030E0F801E20FF31F80815396C6
:100560008C9353972F5F3F4F11962930310599F7A0
:100570008B8981508B8B1D8E81E08E8F1F8EA7C043
:10058000813009F0A5C0FB0182818230C1F48BA1CA
:10059000882361F4423021F449A38AED91E032C00E
:1005A000433091F549A38BEE91E019C0813061F59C
:1005B000423011F44AA324C0433031F519C08330CE
:1005C00031F58BA1882381F4433021F449A38BEECC
:1005D00091E018C04230C1F449A38AED91E00E9435
:1005E00089038CEF91E00EC0813071F4433021F427
:1005F0004AA38AE192E006C0423031F482E08AA345
:1006000087E092E00E9489038BA18F5F8BA389A171
:100610008A8BF80192818881981709F059C053C0DC
:100620008130F1F5CE01F80141810E945202882308
:1006300029F48DE292E00E9489034AC0F0E1FF169E
:1006400079F0FF1520F08FE0F81681F407C0E1E1A2
:10065000FE1641F0F2E1FF1649F406C088E005C03D
:1006600089E003C08AE001C08BE0888BD80140E0BC
:1006700050E007C0FE01E40FF51F14968C9114970B
:1006800080839A014F5F5F4F1196888990E0281709
:10069000390784F31D8E1E8E1F8E81E088A318C03B
:1006A000FB018281813019F484E592E0C4CF82306D
:1006B00011F483E003C0833011F482E08A8BF801E7
:1006C0008081815080831D8E1E8E81E08F8F18A2C5
:1006D000DF91CF911F910F91FF9008951092C50067
:1006E0008DE48093C40088E18093C10086E080930C
:1006F000C20008958091C00087FFFCCF8091C600A2
:100700000895982F8091C00085FFFCCF9093C6007C
:100710000895FC0107C08091C00085FFFCCF909335
:10072000C600319690819923B1F708951F920F92D8
:100730000FB60F9211248F939F938091EE028F5FDB
:100740008093EE028E3261F49091EF029A3040F481
:1007500081E08093EC021092EE029F5F9093EF0293
:100760008091EF028A3059F4809170008D7F8093E0
:1007700070001092EE021092EC021092EF029F9124
:100780008F910F900FBE0F901F9018950F931F938E
:100790008C01FC01808191810E944A07C8010E945E
:1007A0004A071F910F9108956F927F928F929F92A7
:1007B000AF92BF92CF92DF92EF92FF920F931F936F
:1007C000DF93CF9300D000D00F92CDB7DEB7682E65
:1007D0007B018A015901DB011296DC901297ED91A1
:1007E000FC918481F9018283DA0114961C92DB0169
:1007F000ED91FC9181818823C1F18AE692E00E940B
:100800008903D701ED91FC912081332727FD309595
:100810008091ED0290E02817390709F010C12D2DC5
:100820002250DF0190E040E050E004C08D91480F7D
:10083000511D9F5F9217D0F3ED0DF11D3297CA0144
:10084000A4E096958795AA95E1F72081329628171E
:1008500009F0F5C031978081841709F0F0C08091CC
:1008600070008D7F80937000EAC085E892E00E945E
:100870008903FEEF7F2E7D0CF701A081B181FD0180
:1008800090E040E050E004C08191480F511D9F5F0F
:100890009715D0F36D2D70E0EEEF8E2EEFEF9E2EBC
:1008A000860E971EFD01E80DF91DCA0154E09695CC
:1008B00087955A95E1F72081281709F0C0C06B0190
:1008C0000894C108D108AC0DBD1D8C91841709F0A6
:1008D000B6C08091ED02882311F481E001C08F5FE2
:1008E0008093ED02CB010E949D06FC01D801119678
:1008F0009C938E938091ED0280830D90BC91A02DEE
:10090000F70180819181FC01808111968C93F8011F
:10091000A081B181F70180819181FC0183811296D0
:100920008C93F801A081B181F70180819181FC0154
:10093000828113968C93F801A081B181F7018081A7
:100940009181FC01848114968C93D70112968C912D
:10095000F801828390E016C0A92FB0E09D012B5FC3
:100960003F4FAA0DBB1DF70140815181420F531F1C
:10097000FA0180818C93D801ED91FC91E20FF31F75
:1009800010829F5FF5018281981730F3D801ED91B5
:10099000FC91DF0190E020E030E004C08D91280F51
:1009A000311D9F5F9715D0F3E80DF91DC90134E0A3
:1009B000969587953A95E1F78083D801ED91FC9162
:1009C0001197EC0DFD1D208313966C92139781E017
:1009D00015968C93159714968C93FF245E010894BA
:1009E000A11CB11C24C08EEA92E00E9489038F2DC5
:1009F00090E0B5014AE050E00E94A2070E948903FE
:100A000082EC92E00E948903D801ED91FC91EF0DF8
:100A1000F11D808190E0B5014AE050E00E94A207FC
:100A20000E94890387EC92E00E948903F394F80105
:100A30008281F816C0F287EC92E00E9489030F9041
:100A40000F900F900F900F90CF91DF911F910F910A
:100A5000FF90EF90DF90CF90BF90AF909F908F90DE
:100A60007F906F900895AF92BF92CF92DF92EF92F6
:100A7000FF920F931F93DF93CF93CDB7DEB72F97DE
:100A80000FB6F894DEBF0FBECDBF0E831F83F22FCB
:100A90002887E32F39874A875B876C877D878E8716
:100AA0009F87D62EC12E5F018091ED02882311F41D
:100AB00081E001C08F5F8093ED020D2D10E0C80131
:100AC00007960E949D06FC01D70111969C938E9378
:100AD0008091ED028083ED91FC9111971182ED914F
:100AE000FC911197C282ED91FC911197B382ED9127
:100AF000FC91D48295E00C5F1F4F9E012B5F3F4F0E
:100B000008C0A40FB51F420F531FFA0180818C93B8
:100B10009F5F492F50E0F701A081B18104171507AD
:100B200084F72D2D2B5FFD0190E040E050E004C0E4
:100B30008191480F511D9F5F9217D0F32D2D30E00A
:100B4000A20FB31FCA0114E0969587951A95E1F795
:100B500015968C93D701ED91FC91E20FF31F46831C
:100B6000B7E0DB0EF701D282A38210E06E01089499
:100B7000C11CD11C24C08AEC92E00E948903812F01
:100B800090E0B6014AE050E00E94A2070E9489036B
:100B900082EC92E00E948903D701ED91FC91E10F74
:100BA000F11D808190E0B6014AE050E00E94A2076A
:100BB0000E94890387EC92E00E9489031F5FF7017E
:100BC00082811817C0F287EC92E00E94890381E0CD
:100BD000D70114968C932F960FB6F894DEBF0FBEF4
:100BE000CDBFCF91DF911F910F91FF90EF90DF90DC
:100BF000CF90BF90AF90089580E480937C00EAE7A7
:100C0000F0E08081866080838081806880830895A1
:100C1000DF93CF9300D00F92CDB7DEB780917A00EB
:100C2000806480937A0080917A0086FDFCCF809169
:100C3000780090917900692F782F82E090E00F90F2
:100C40000F900F90CF91DF910895559AE0E8F0E072
:100C500080818068808380818B608083E1E8F0E020
:100C60008081826080830895DF93CF9300D00F92BC
:100C7000CDB7DEB7962F80E0272F30E0822B932B65
:100C800090938900809388000F900F900F90CF91E0
:100C9000DF9108958130910551F08230910571F016
:100CA000892B91F4E89A80916900836004C0E99AE5
:100CB000809169008C60809369000895EA9A809120
:100CC00069008063809369000895E0EBF0E0808123
:100CD000806C8083E1EBF0E08081876880838FEF18
:100CE0008093B30008950E946E0378941AB88BB174
:100CF0008C608BB980E090E00E944A0681E090E031
:100D00000E944A0680E480937C00EAE7F0E080815C
:100D1000866080838081806880830E942506E0EB66
:100D2000F0E08081806C8083E1EBF0E08081876877
:100D300080838FEF8093B3000895CF93DF93BC013E
:100D40008230910510F462E070E0A0913203B0911E
:100D50003303ED01E0E0F0E040E050E021C08881A5
:100D600099818617970769F48A819B81309719F0DA
:100D70009383828304C09093330380933203FE01F4
:100D800034C06817790738F44115510519F08417F4
:100D9000950708F4AC01FE018A819B819C01E90161
:100DA0002097E9F641155105A9F1CA01861B970B59
:100DB000049708F4BA01E0E0F0E02AC08D919C911C
:100DC000119784179507F9F46417750781F4129643
:100DD0008D919C911397309719F09383828304C06F
:100DE0009093330380933203FD0132964FC0CA01C2
:100DF000861B970BFD01E80FF91F61937193029712
:100E00008D939C9343C0FD01828193819C01D90104
:100E10001097A1F68091300390913103892B41F412
:100E20008091DD029091DE02909331038093300334
:100E30004091DF025091E0024115510541F44DB758
:100E40005EB78091DB029091DC02481B590B209128
:100E500030033091310324173507B0F4CA01821BE7
:100E6000930B8617970780F0AB014E5F5F4F841797
:100E7000950750F0420F531F5093310340933003B6
:100E8000F9016193719302C0E0E0F0E0CF01DF91DE
:100E9000CF910895CF93DF93009709F450C0EC01F0
:100EA00022971B821A82A0913203B09133031097CC
:100EB00009F140E050E0AC17BD0708F1BB83AA83FD
:100EC000FE0121913191E20FF31FAE17BF0779F4B4
:100ED0008D919C911197280F391F2E5F3F4F3983B9
:100EE000288312968D919C9113979B838A83411539
:100EF000510571F4D0933303C093320320C012968E
:100F00008D919C911397AD01009711F0DC01D3CF27
:100F1000FA01D383C28321913191E20FF31FCE17DF
:100F2000DF0769F488819981280F391F2E5F3F4FB1
:100F3000FA01318320838A819B8193838283DF91AD
:100F4000CF910895FB019F01E8944230C4F04532EF
:100F5000B4F44A3029F497FB1EF4909581959F4F85
:100F6000642F77270E94D307805D8A330CF0895D58
:100F70008193CB010097A1F716F45DE251931082A3
:100F8000C9010C94C307DC01FC01672F7191772321
:100F9000E1F7329704C07C916D9370836291AE1734
:100FA000BF07C8F30895AA1BBB1B51E107C0AA1FC6
:100FB000BB1FA617B70710F0A61BB70B881F991FFA
:100FC0005A95A9F780959095BC01CD010895F894A4
:020FD000FFCF51
:100FD2000A0D496E6974696174696E670A0D004988
:100FE2006E207472616E73666C616720616E64203C
:100FF20072657472616E73666C61672121210D0ADC
:10100200000A0D42524F414443415354494E470A4C
:101012000D000A0D524542524F4144434153544937
:101022004E470D0A000A0D53454E44494E4720448F
:101032004154410D0A000A0D524543454956494E55
:101042004700FF0001020201010000FF0001020946
:10105200FF00010202010100000000FF0002FF0286
:1010620000000000FE0103FF0200000000FE010379
:10107200FF0200000000FF00020309FF000102025C
:10108200010100000000FE00020109FF000102024E
:101092000101000000000A0D484F50204C494D4903
:1010A200542052454143484544000A0D6669727313
:1010B2007420706C6163653A2032000A0D666972B1
:1010C200737420706C6163653A2033000A0D77698E
:1010D2006C6C20686F70000A0D7365636F6E64201C
:1010E200706C6163653A20320A000A0D7365636FA2
:1010F2006E6420706C6163653A20330A000A0A0D3F
:101102002020202020202020202044415441204320
:101112004F52525550544544202D2D20444953439B
:10112200415244000A0A0D53484F554C44204E4F39
:1011320054204245204845524500496E20545241B0
:101142004E53504F52542072656365697665204153
:10115200434B0D0A00496E205452414E53504F5298
:10116200542C20696E636F6D696E67207061636BCA
:10117200616765206E6F742041434B0D0A00544C29
:101182002072656365697665207365676D656E7447
:101192002000203A2020000D0A00544C2073656E76
:1011A20064207365676D656E74200020003403004F
:0211B20000003B
:00000001FF
